:100000000C9478000C94A0000C94A0000C94A00018
:100010000C94A0000C94A0000C94A0000C94A000E0
:100020000C94A0000C94A0000C94A0000C94A000D0
:100030000C94A0000C94A0000C94A0000C94A000C0
:100040000C94000E0C94A0000C941A110C94A000B7
:100050000C94A0000C94A0000C94A0000C94A000A0
:100060000C94A0000C94A000000024272A00002576
:10007000282B000023262904040404040404040299
:100080000202020202030303030303010204081035
:100090002040800102040810200102040810200002
:1000A0000000070002010000030406000000000039
:1000B000000000494E46494E4954594E414ECDCC60
:1000C000CC3D0AD7233C17B7D13877CC2B32959546
:1000D000E6241FB14F0A000020410000C842004042
:1000E0001C4620BCBE4CCA1B0E5AAEC59D749F1048
:1000F00011241FBECFEFD4E0DEBFCDBF11E0A0E0E2
:10010000B1E0E8E0F0E302C005900D92A638B10737
:10011000D9F713E0A6E8B1E001C01D92AA30B107FB
:10012000E1F710E0C0EFD0E004C02297FE010E948A
:100130009E17CE3ED107C9F70E94F50D0C94031807
:100140000C9400009093090280930802AA2797FD5F
:10015000A095BA2FBC01CD010E94BC152DEC3CEC42
:100160004CE85FE30E9470160E94891570930B02A1
:1001700060930A02089510920602109207020895F1
:100180000E9470160E9489150895019739F0880F12
:10019000991F880F991F02970197F1F708952F92E1
:1001A0003F924F925F926F927F928F929F92AF9207
:1001B000BF92CF92DF92EF92FF920F931F93CF9354
:1001C000DF93CDB7DEB72C970FB6F894DEBF0FBE26
:1001D000CDBF69877A878B879C87209032023090C9
:1001E0003302409034025090350280913602909153
:1001F0003702A0913802B09139028D839E83AF837C
:10020000B88780913A0290913B02A0913C02B09154
:100210003D0289839A83AB83BC83609056027090C1
:1002200057028090580290905902A0905A02B090C4
:100230005B02C0905C02D0905D02A6019501C401F2
:10024000B3010E946C16E0905E02F0905F02009194
:1002500060021091610218165CF4A4019301C801B8
:10026000B7010E946C1618165CF0C401B3010DC0F2
:10027000A6019501C801B7010E946C1618161CF45E
:10028000C801B70102C0C601B5010E9489155B0112
:100290006C01A2019101C201B1010E9470167B01A3
:1002A0008C012D813E814F815885CA01B9010E9480
:1002B00070169B01AC01C801B7010E94B9147B0103
:1002C0008C0129813A814B815C81CA01B9010E946C
:1002D00070169B01AC01C801B7010E94B9140E94BD
:1002E000D71620EC31EE44E65CE40E9470162985B6
:1002F0003A854B855C850E9421157B018C01C601E6
:10030000B5010E94BC159B01AC01C801B7010E9458
:1003100021150E9489152C960FB6F894DEBF0FBEEA
:10032000CDBFDF91CF911F910F91FF90EF90DF90A4
:10033000CF90BF90AF909F908F907F906F905F9085
:100340004F903F902F90089520E030E040E050E043
:1003500060915E0270915F028091600290916102F3
:100360000E946C1618163CF460E070E088E492E499
:100370000E94CF00089560E070E088EC94E40E9451
:10038000CF0008952F923F924F925F926F927F928B
:100390008F929F92AF92BF92CF92DF92EF92FF9295
:1003A0000F931F93CF93DF93CDB7DEB7A0970FB610
:1003B000F894DEBF0FBECDBF809126029091270238
:1003C000A0912802B09129028D8F9E8FAF8FB8A384
:1003D00080911A0290911B02A0911C02B0911D0203
:1003E000898F9A8FAB8FBC8F9C01AD016D8D7E8DF7
:1003F0008F8D98A10E94B8147B018C0120E030E021
:1004000040E050E00E946C16181624F017FB10957F
:1004100017F91095E0923202F09233020093340201
:100420001093350280912A0290912B02A0912C0208
:10043000B0912D028D8B9E8BAF8BB88F80911E0259
:1004400090911F02A0912002B0912102898B9A8B7A
:10045000AB8BBC8B9C01AD016D897E898F89988D9A
:100460000E94B8147B018C0120E030E040E050E0B5
:100470000E946C16181624F017FB109517F91095AA
:10048000E0923602F092370200933802109339025C
:1004900080912E0290912F02A0913002B0913102F2
:1004A0008D879E87AF87B88B80912202909123021F
:1004B000A0912402B091250289879A87AB87BC87D7
:1004C0009C01AD016D857E858F8598890E94B81449
:1004D0007B018C0120E030E040E050E00E946C168F
:1004E000181624F017FB109517F91095E0923A02B0
:1004F000F0923B0200933C0210933D02E0907101A8
:10050000F09072010091730110917401298D3A8D60
:100510004B8D5C8DC801B7010E9470160E94891531
:100520000E94BC151B012C0160933E0270933F0298
:100530008093400290934102609075017090760123
:10054000809077019090780129893A894B895C895C
:10055000C401B3010E9470160E9489150E94BC1547
:100560006D837E838F8398876093420270934302EA
:100570008093440290934502A0907901B0907A0153
:10058000C0907B01D0907C0129853A854B855C85A4
:10059000C601B5010E9470160E9489150E94BC1503
:1005A00069837A838B839C836093460270934702AE
:1005B00080934802909349022D8D3E8D4F8D58A116
:1005C000C801B7010E9470160E9489150E94BC15CF
:1005D0007B018C0160934A0270934B0280934C0222
:1005E00090934D022D893E894F89588DC401B301E6
:1005F0000E9470160E9489150E94BC153B014C0197
:1006000060934E0270934F02809350029093510278
:100610002D853E854F855889C601B5010E9470160B
:100620000E9489150E94BC155B016C016093520207
:10063000709353028093540290935502A20191014A
:10064000C801B7010E94B8147B018C0120E030E0A2
:1006500040E050E00E946C16181624F017FB10952D
:1006600017F91095E0925602F09257020093580243
:10067000109359022D813E814F815885C401B301E9
:100680000E94B8147B018C0120E030E040E050E093
:100690000E946C16181624F017FB109517F9109588
:1006A000E0925A02F0925B0200935C0210935D02AA
:1006B00029813A814B815C81C601B5010E94B81441
:1006C0007B018C0120E030E040E050E00E946C169D
:1006D000181624F017FB109517F91095E0925E029A
:1006E000F0925F02009360021093610210E0298D86
:1006F0003A8D4B8D5C8D6D8D7E8D8F8D98A10E9476
:100700006C1688230CF011E0109381011092820185
:1007100029893A894B895C896D897E898F89988D71
:100720000E946C1688231CF081E080938201109255
:10073000830129853A854B855C856D857E858F850E
:1007400098890E946C1688231CF081E080938301B5
:10075000612F83E00E94200F6091820187E00E9458
:10076000200F6091830182E10E94200FA0960FB6B6
:10077000F894DEBF0FBECDBFDF91CF911F910F91D7
:10078000FF90EF90DF90CF90BF90AF909F908F90B1
:100790007F906F905F904F903F902F900895EF92D1
:1007A000FF920F931F9360931A0270931B02809322
:1007B0001C0290931D0220931E0230931F0240934F
:1007C000200250932102E0922202F0922302009331
:1007D0002402109325020E94C2011F910F91FF90E5
:1007E000EF900895EF92FF920F931F93609326026C
:1007F00070932702809328029093290220932A0263
:1008000030932B0240932C0250932D02E0922E0243
:10081000F0922F0200933002109331020E94C20125
:100820001F910F91FF90EF90089580936F01682FB3
:100830008CE00E94200F08951F93182F0E94D40E61
:10084000892B11F420E007C0812F0E94D40E20E0F4
:10085000892B09F021E0822F99271F910895CF92CB
:10086000EF92FF920F931F93E216F306040715070A
:1008700019F480E090E00AC00E941C04882321F053
:1008800080E090E0CC2011F081E090E01F910F918A
:10089000FF90EF90CF9008951F93182F61E00E9472
:1008A000200F85E090E00E945F0E60E0812F0E94A3
:1008B000200F1F91089580E090E0A0E0B0E08093C9
:1008C0001A0290931B02A0931C02B0931D02809306
:1008D0001E0290931F02A0932002B09321028093E6
:1008E000220290932302A0932402B09325028093C6
:1008F000260290932702A0932802B09329028093A6
:100900002A0290932B02A0932C02B0932D02809385
:100910002E0290932F02A0933002B093310261E037
:1009200082E00E94B60E61E083E00E94B60E61E0B4
:100930008AE00E94B60E61E087E00E94B60E61E098
:1009400083E10E94B60E61E082E10E94B60E60E093
:1009500084E00E94B60E60E088E00E94B60E60E07F
:1009600081E10E94B60E0E94C2010895AF92BF922B
:10097000CF92DF92EF92FF920F931F93CF93DF936B
:10098000CDB7DEB722970FB6F894DEBF0FBECDBF4E
:100990008C017B016A0159014AE050E0BE016F5FA2
:1009A0007F4F0E948A1329813A81201B310B121636
:1009B00013065CF4F70171836083F60180819181F5
:1009C0008A299B299183808303C0F70111821082B9
:1009D000C90122960FB6F894DEBF0FBECDBFDF91DE
:1009E000CF911F910F91FF90EF90DF90CF90BF902C
:1009F000AF900895AF92BF92CF92DF92EF92FF92A5
:100A00000F931F93CF93DF93CDB7DEB722970FB627
:100A1000F894DEBF0FBECDBF8C017B016A01590186
:100A2000BE016F5F7F4F0E943D1229813A81201BDA
:100A3000310B121613066CF4F70160837183828305
:100A40009383F601808191818A299B2991838083F8
:100A500009C080E090E0A0E0B0E0F70180839183DE
:100A6000A283B383C90122960FB6F894DEBF0FBEEE
:100A7000CDBFDF91CF911F910F91FF90EF90DF904D
:100A8000CF90BF90AF9008952F923F924F925F9278
:100A90006F927F928F929F92AF92BF92CF92DF928E
:100AA000EF92FF920F931F93CF93DF93CDB7DEB7F3
:100AB00062970FB6F894DEBF0FBECDBF9A8B898BBD
:100AC0006B015A834983FC0111821082EE24FF24BA
:100AD0003696FC83EB838B010F5F1F4F82969E83BC
:100AE0008D83E989FA893E96F887EF8389899A8907
:100AF00042969A878987E989FA893A96FC87EB8733
:100B000089899A898A969E878D87E989FA89B69616
:100B1000F88BEF8776E1272E312C89899A89280E68
:100B2000391E6AE1462E512C480E591E54E0652E9E
:100B3000712C680E791E4EE1842E912C880E991E20
:100B400032E0A32EB12CA80EB91E89C0F601EE0D1D
:100B5000FF1DE081E035F1F1E1358CF4E93409F471
:100B600055C0EA3434F4E63409F45CC0E734B9F42F
:100B700019C0EA3409F450C0ED3489F419C0E335E2
:100B800011F1E43534F4E13509F459C0E23539F4B2
:100B90004FC0E93569F1EA3591F1E83511F180E0AE
:100BA00090E058C021E030E049895A89B50105C07C
:100BB00022E030E049895A89B301C8018E0D9F1D9A
:100BC0000E94B60447C020E034E049895A896D810B
:100BD0007E813BC024E030E049895A896B817C8169
:100BE00034C028E030E049895A896B857C852DC066
:100BF00020E130E049895A896F81788526C020E25A
:100C000030E049895A8969857A851FC020E430E03F
:100C100049895A89B10119C020E830E049895A89C7
:100C2000B20113C020E032E049895A89B4010DC0F5
:100C300020E030E149895A896F85788906C020E033
:100C400038E049895A896D857E85C8018E0D9F1DC2
:100C50000E94FA040894E11CF11CE80EF91EE981D7
:100C6000FA81EE16FF060CF471CF62960FB6F89477
:100C7000DEBF0FBECDBFDF91CF911F910F91FF90CF
:100C8000EF90DF90CF90BF90AF909F908F907F902C
:100C90006F905F904F903F902F9008959927BC01DF
:100CA00085E00E94860F08958FEE9EEF0E94A200BD
:100CB00061E08CE00E94B60E61E08BE00E94B60E0F
:100CC00061E086E00E94B60E61E085E00E94B60E0B
:100CD00061E080E10E94B60E61E08FE00E94B60EF6
:100CE00061E08CE00E94200F60E070E085E00E94EF
:100CF000860F60E070E086E00E94860F60E070E0A2
:100D00008BE00E94860F60E080E10E94200F60E08F
:100D10008FE00E94200F08950F931F93CF93DF93CE
:100D2000082FC0E0D0E010E0802F0E946B0FC80FAA
:100D3000D91F1F5F1330C1F7CE0163E070E00E943E
:100D40003817CB01DF91CF911F910F91089580E06B
:100D50000E948C06AA2797FDA095BA2FBC01CD0151
:100D60000E94BC1520E030E040EA50E40E9470167A
:100D700020E030E048EC52E40E94701620E030E0C1
:100D800040E85AE30E9470160E948915DC01CB01ED
:100D900008950E94A70608950E94C9069C018091AB
:100DA000080290910902281739071CF460916E011E
:100DB0000BC080910A0290910B022817390714F09A
:100DC00060E002C060916D0180910C02861731F0E5
:100DD00060930C02772786E00E94860F08953F9269
:100DE0004F925F926F927F928F929F92AF92BF923B
:100DF000CF92DF92EF92FF920F931F93CF93DF93E7
:100E0000CDB7DEB728970FB6F894DEBF0FBECDBFC3
:100E10006D837E838F839887A0905602B09057028F
:100E2000C0905802D0905902E0905A02F0905B02B4
:100E300000915C0210915D02A8019701C601B50105
:100E40000E946C1618161CF4C601B50102C0C80138
:100E5000B7010E94891560936A0270936B028093B8
:100E60006C0290936D02A0905E02B0905F02C09001
:100E70006002D09061020E94BC157B018C019B0135
:100E8000AC01C601B5010E946C1618161CF4C6010F
:100E9000B50102C0C801B7010E94891560936A02BA
:100EA00070936B0280936C0290936D0222E030E0AD
:100EB00040E050E00E946D17442455243201421A4C
:100EC000530A640A750A2D813E814F8158852F3F50
:100ED0008FE3380780E0480780E058076CF0CA01CC
:100EE000B90128EE33E040E050E00E946D173093E6
:100EF0007E0220937D0204C010927E0210927D0239
:100F00005301420149825A826B827C8260914A027B
:100F100070914B0280914C0290914D020E94891574
:100F20007B018C0160913E0270913F0280914002F2
:100F3000909141020E9489159B01AC01C0908101F2
:100F400069E084E00E942F04382E60914E02709177
:100F50004F0280915002909151020E9489157B01AD
:100F60008C01609142027091430280914402909101
:100F700045020E9489159B01AC01C09082016DE081
:100F800088E00E942F04D82E609152027091530283
:100F900080915402909155020E9489157B018C0129
:100FA00060914602709147028091480290914902F7
:100FB0000E9489159B01AC01C090830160E181E131
:100FC0000E942F04182F332009F44FC0C301B2012F
:100FD0000E94BC1520915602309157024091580250
:100FE000509159020E94B9140E9489152B013C01AD
:100FF0001616170618061906C4F582E00E944C045E
:1010000080916A0290916B02A0916C02B0916D0286
:10101000481A590A6A0A7B0A80918101882379F06B
:1010200020E030E040E85FE360913E0270913F02D3
:1010300080914002909141020E94B9140EC020E0BC
:1010400030E040E85FE360913E0270913F028091A2
:101050004002909141020E94B81460933E02709346
:101060003F028093400290934102DD2009F45CC06E
:1010700069817A818B819C810E94BC1520915A02E2
:1010800030915B0240915C0250915D020E94B91464
:101090000E94891569837A838B839C8316161706B1
:1010A000180619060CF040C08AE00E944C0480919A
:1010B0006A0290916B02A0916C02B0916D0229813D
:1010C0003A814B815C81281B390B4A0B5B0B2983CE
:1010D0003A834B835C8380918201882379F020E0FE
:1010E00030E040E85FE360914202709143028091FA
:1010F0004402909145020E94B9140EC020E030E0F5
:1011000040E85FE3609142027091430280914402A3
:10111000909145020E94B81460934202709343027A
:101120008093440290934502112309F44FC0C501F6
:10113000B4010E94BC1520915E0230915F02409183
:101140006002509161020E94B9140E9489154B01FE
:101150005C011616170618061906C4F583E10E94ED
:101160004C0480916A0290916B02A0916C02B09144
:101170006D02881A990AAA0ABB0A80918301882302
:1011800079F020E030E040E85FE360914602709142
:10119000470280914802909149020E94B9140EC002
:1011A00020E030E040E85FE3609146027091470242
:1011B00080914802909149020E94B81460934602BF
:1011C0007093470280934802909349020E94CC0694
:1011D00060917D0270917E02161617063CF48827F6
:1011E00077FD8095982F0E943D0E04C08D819E81D1
:1011F0000E94C500332009F089CEDD2009F086CE9B
:10120000112309F083CE8091260290912702A091AC
:101210002802B091290280931A0290931B02A09396
:101220001C02B0931D0280912A0290912B02A09182
:101230002C02B0912D0280931E0290931F02A09366
:101240002002B093210280912E0290912F02A09152
:101250003002B09131028093220290932302A09336
:101260002402B09325020E94C20128960FB6F8947A
:10127000DEBF0FBECDBFDF91CF911F910F91FF90C9
:10128000EF90DF90CF90BF90AF909F908F907F9026
:101290006F905F904F903F90089508C00E94CC06D9
:1012A00068EE73E080E090E00E943D0E0E94C90667
:1012B000209108023091090225503040821793078F
:1012C0006CF308951F93182F882311F00E944D0985
:1012D000612F77278BE00E94860F1F910895DF9280
:1012E000EF92FF920F931F93D82E7B010E944D091E
:1012F000D09219026D2D80E10E94200F61E08FE0F5
:101300000E94200F0027F7FC0095102FC801B7019D
:101310000E943D0E60E08FE00E94200F60E080E1BF
:101320000E94200F1F910F91FF90EF90DF90089582
:101330002F923F924F925F926F927F928F929F92E5
:10134000AF92BF92CF92DF92EF92FF920F931F93D3
:10135000CF93DF93CDB7DEB7C354D0400FB6F89428
:10136000DEBF0FBECDBFFC01AB0180818F3209F41F
:1013700068C3BF01CE0101960E94440529813A81CC
:10138000C90183709070892B71F42115310559F0D2
:10139000809184019091850197FD05C09C838B838A
:1013A00021603A832983E980FA80E0FEA5C20B819F
:1013B0001C811093850100938401A0902202B090BB
:1013C0002302C0902402D090250280911E029091A9
:1013D0001F02A0912002B09121028FA798ABA9AB68
:1013E000BAAB80911A0290911B02A0911C02B0919D
:1013F0001D028BAB9CABADABBEAB90917001249644
:101400009FAF2497C701887090702496AFAD249742
:10141000AA2329F1892B29F48BA99CA9ADA9BEA9DE
:1014200004C08B859C85AD85BE858FAB98AFA9AF79
:10143000BAAFE4FC05C08FA598A9A9A9BAA904C0B0
:101440008F859889A989BA898BAF9CAFADAFBEAFA4
:10145000E5FE44C02B883C884D885E8841C0892BBE
:1014600049F48BA99CA9ADA9BEA98FAB98AFA9AF30
:10147000BAAF0EC02B853C854D855E856BA97CA9D6
:101480008DA99EA90E94B9146FAB78AF89AF9AAFAE
:10149000E4FC09C08FA598A9A9A9BAA98BAF9CAFF4
:1014A000ADAFBEAF0EC02F85388949895A896FA567
:1014B00078A989A99AA90E94B9146BAF7CAF8DAFA6
:1014C0009EAFE5FE0BC02B893C894D895E89C60124
:1014D000B5010E94B9141B012C0102C0150126019F
:1014E000F1FE0CC08F8D98A1A9A1BAA180936202D0
:1014F00090936302A0936402B09365020C311105CE
:1015000009F4C6C00D311105ACF40430110509F41D
:1015100058C0053011052CF40230110508F0DAC16D
:1015200022C00431110509F45FC00531110509F02D
:10153000D1C17FC0043511054CF4013511050CF003
:10154000CDC00E31110509F0C5C1B7C00B3511056D
:1015500009F4B0C10C35110509F4AFC10A35110504
:1015600009F0B8C1A3C1820171012BAD3CAD4DADF5
:101570005EAD6FA978AD89AD9AAD0E94F2038B8103
:101580009C81019759F4609162027091630280918D
:101590006402909165020E94CF0002C00E94A401E3
:1015A0006093660270936702809368029093690269
:1015B0006091660270916702809168029091690261
:1015C00079C020E030E040E05FE36F817885898575
:1015D0009A850E94B9140E948915882777FD809505
:1015E000982F0E943D0E88C188EF91E2ABE4B3E4EE
:1015F0008093710190937201A0937301B093740171
:101600008093750190937601A0937701B093780150
:1016100080E090E0AEEFB5E48093790190937A0199
:10162000A0937B01B0937C0180E792E4A1EABCE344
:1016300024C08BE49AEEAFEFB0E4809371019093F5
:101640007201A0937301B09374018093750190931C
:101650007601A0937701B093780180E090E0A0EA52
:10166000B3E48093790190937A01A0937B01B093C6
:101670007C0180E090E0A0E0BFE380937D01909347
:101680007E01A0937F01B09380010E94C20134C10A
:101690000F2EF0E0EF2EF0E0FF2EF0E00F2FF0E045
:1016A0001F2FF02DA8019701C801B7010E94F20376
:1016B0000E94A4010E94EF061FC1820171012BAD9F
:1016C0003CAD4DAD5EAD6FA978AD89AD9AAD0E94D0
:1016D000F2030E94A4010E94EF06DACF6FA078A463
:1016E00089A49AA424969FAD2497992341F4A60136
:1016F0009501C401B3010E94B9143B014C01A4013E
:101700009301C601B5010E941D15882384F484014C
:1017100073012FA538A949A95AA96BA97CA98DA93C
:101720009EA90E94F2030E94A4010E94EF06E0908D
:101730002202F090230200912402109125022BAD89
:101740003CAD4DAD5EAD6FA978AD89AD9AAD0E944F
:10175000F2030E94A4010E94EF068B819C818335D5
:10176000910559F48BA59CA5ADA5BEA523968CAF7C
:101770009DAFAEAFBFAF23970CC0A2019101C401D2
:10178000B3010E94B81423966CAF7DAF8EAF9FAFAC
:10179000239764015301860175012BAD3CAD4DAD1E
:1017A0005EAD6FA978AD89AD9AAD0E94F2030E943B
:1017B000A4010E94EF0623962CAD3DAD4EAD5FAD6A
:1017C0002397C601B5010E94B8145B016C01A20108
:1017D00091010E941D15882314F4620151018601B4
:1017E00075012BAD3CAD4DAD5EAD6FA978AD89AD4A
:1017F0009AAD0E94F203E0906202F09063020091C1
:1018000064021091650220E030E040E050E0C80141
:10181000B7010E946C1618162CF4C801B7010E947B
:10182000CF0002C00E94A401609366027093670219
:1018300080936802909369026091660270916702DA
:1018400080916802909169020E94EF068B819C81D1
:101850008235910591F420E030E04AE754E46F814D
:10186000788589859A850E9470160E948915882737
:1018700077FD8095982F0E943D0E840173012BAD5A
:101880003CAD4DAD5EAD6FA978AD89AD9AAD0E940E
:10189000F2030E94A4010E94EF06A2019101C60179
:1018A000B5010E946C1618163CF575CF81E0809347
:1018B000700122C0109270011FC0820171012BAD16
:1018C0003CAD4DAD5EAD6FA978AD89AD9AAD0E94CE
:1018D000CF0312C060E071E08FE792E00E948010B9
:1018E0004B815C81662757FD6095762F2AE030E0BA
:1018F0008FE792E00E94621029813A8121FFA1C006
:101900008D819E818936910509F44AC08A369105F8
:10191000B4F48636910569F18736910544F4009751
:1019200009F48FC08536910509F079C020C087364B
:10193000910539F18836910509F071C024C08C36C3
:10194000910509F441C08D36910544F48A3691051C
:10195000A9F18B36910509F062C032C08E3791052E
:1019600009F43FC08F37910509F059C048C081E0A4
:1019700001C080E00E94150480916B010E94620901
:1019800060C080E0FBCF32FF5CC06BA17CA18DA169
:101990009EA10E948915DC01CB010E94A20051C0CA
:1019A00067E071E08FE792E00E9480100E94C90614
:1019B000BC018FE792E00E94751043C08FEF01C019
:1019C00080E00E944E063DC032FF3BC06BA17CA16F
:1019D0008DA19EA10E94891570936C0160936B018B
:1019E00030C020E030E040E05FE36F81788589859A
:1019F0009A850E94B9140E94891581E00DC020E0EB
:101A000030E040E05FE36F81788589859A850E94A8
:101A1000B9140E94891580E00E946F0912C06AE023
:101A200071E08FE792E00E9480104D815E81662711
:101A300057FD6095762F2AE030E08FE792E00E9414
:101A40006210CD5BDF4F0FB6F894DEBF0FBECDBF87
:101A5000DF91CF911F910F91FF90EF90DF90CF908A
:101A6000BF90AF909F908F907F906F905F904F90BE
:101A70003F902F9008950F931F938FEF0E948C0635
:101A8000AC01EEE1F1E0A1E0B0E0608171814617C8
:101A900057071CF5AA0FBB1FAA0FBB1FFD01EA5E6B
:101AA000FE4F0281138120813181421B530BA65EC0
:101AB000BE4FFD0182819381801B910B621B730BD2
:101AC0009C01429FC001439F900D529F900D112495
:101AD0000E943817600F711F10C08A2F8F5F1196F8
:101AE0003496A431B10589F6843119F060E070E0D4
:101AF0000BC060916801709169016F3F710521F021
:101B00001CF06FEF70E004C077FF02C060E070E08F
:101B1000CB011F910F9108950E94CC068FE792E0B0
:101B20000E949510882311F18FE792E00E94921095
:101B300080936A018D3019F48AE080936A01909154
:101B40006A0190329CF09B3319F481E08093070284
:101B500080910702882351F480910602E82FFF2725
:101B6000EA57FE4F90838F5F8093060280910602B2
:101B700087FF04C0109206021092070260910602CD
:101B80006623B9F080916A018A3099F47727FB01C6
:101B9000EA57FE4F108286E891E00E949809109261
:101BA00006021092070261E171E08FE792E00E9465
:101BB000841008950F931F930FE712E040E05BE459
:101BC00060E070E0C8010E94991064E171E0C80112
:101BD0000E94841010920602109207020E945B0479
:101BE0000E9454061F910F910895CFEFD4E0DEBFFD
:101BF000CDBF0E946C0E0E94DA0D0E948C0DFDCFAD
:101C00001F920F920FB60F9211248F939F93AF9351
:101C1000BF938091840290918502A0918602B09139
:101C200087020196A11DB11D8093840290938502C5
:101C3000A0938602B0938702BF91AF919F918F913D
:101C40000F900FBE0F901F901895609184027091B5
:101C50008502809186029091870227E0660F771FA8
:101C6000881F991F2A95D1F72DE730E040E050E01A
:101C70000E944B17CA01B9010895AF92BF92CF924B
:101C8000DF92EF92FF920F931F935B016C010E9412
:101C9000250E7B018C010E94250E6E197F09800B99
:101CA000910B6A157B058C059D05A8F31F910F917B
:101CB000FF90EF90DF90CF90BF90AF900895019785
:101CC00051F0880F991F880F991F02972FB7F8942A
:101CD0000197F1F72FBF0895789410928402109223
:101CE0008502109286021092870284B5826084BDBC
:101CF00084B5816084BD85B5826085BD85B5816010
:101D000085BDEEE6F0E0808181608083E1E8F0E06F
:101D1000808182608083808181608083E0E8F0E060
:101D2000808181608083E1EBF0E08081846080834A
:101D3000E0EBF0E0808181608083ECE7F0E080817F
:101D40008F778083808180648083EAE7F0E0808100
:101D500084608083808182608083808181608083D1
:101D60008081806880831092C1000895282F3327D6
:101D7000C90185579F4FFC01949129583F4FF901A4
:101D80008491882381F0E82FFF27E859FF4FE491E1
:101D9000FF27662329F48081909589238083089505
:101DA0008081892B80830895482F5527CA01815649
:101DB0009F4FFC012491CA0185579F4FFC019491CC
:101DC00049585F4FFA013491332319F480E090E0D1
:101DD0000895222331F1233021F4809180008F7700
:101DE00005C0243031F4809180008F7D8093800085
:101DF00018C0213019F484B58F7704C0223021F443
:101E000084B58F7D84BD0DC0263021F48091B00053
:101E10008F7705C0273029F48091B0008F7D8093A3
:101E2000B000E32FFF27EE58FF4FE491FF2780819A
:101E300020E030E0892311F021E030E0C90108956D
:101E4000482F5527CA0181569F4FFC012491CA0192
:101E500085579F4FFC01949149585F4FFA01349187
:101E60003323C1F1222331F1233021F4809180000A
:101E70008F7705C0243031F4809180008F7D80936E
:101E8000800018C0213019F484B58F7704C0223047
:101E900021F484B58F7D84BD0DC0263021F480915E
:101EA000B0008F7705C0273029F48091B0008F7D76
:101EB0008093B000E32FFF27E359FF4FE491FF2702
:101EC000662329F4808190958923808308958081F9
:101ED000892B8083089590917C008F70907F892B4F
:101EE00080937C0080917A00806480937A00809156
:101EF0007A0086FDFCCF20917800809179009927A7
:101F0000982F88273327822B932B08951F93CF93E5
:101F1000DF93182FEB0161E00E94B60EE12FFF273F
:101F2000E156FF4F8491833051F4809180008068A6
:101F300080938000D0938900C093880037C084309C
:101F400051F480918000806280938000D0938B0058
:101F5000C0938A002BC0813029F484B5806884BD89
:101F6000C7BD24C0823029F484B5806284BDC8BD59
:101F70001DC0863041F48091B00080688093B0002D
:101F8000C093B30013C0873041F48091B0008062E9
:101F90008093B000C093B40009C0C038D10514F4D8
:101FA00060E001C061E0812F0E94200FDF91CF919E
:101FB0001F91089508950895CB01BA01332744274E
:101FC00055270E94601108952AE00E94DC0F0895B1
:101FD000AB01662777270E94E40F0895862F0E94A1
:101FE00058110895862F0E94581108950F931F933A
:101FF0008C016DE00E94F20F6AE0C8010E94F20FAE
:102000001F910F9108950F931F938C010E94E40F6D
:10201000C8010E94F60F1F910F9108950F931F930F
:102020008C010E94EE0FC8010E94F60F1F910F91C4
:1020300008950F931F938C010E94F20FC8010E9414
:10204000F60F1F910F910895EF92FF920F931F9338
:10205000CF93DF93EC017A018B0177FF0BC06DE228
:102060000E94F20F10950095F094E094E11CF11C91
:10207000011D111D2AE0B801A701CE010E94DC0F4D
:10208000DF91CF911F910F91FF90EF9008950F93E3
:102090001F938C010E942410C8010E94F60F1F910B
:1020A0000F9108952115310521F4642F0E94F20F3C
:1020B00008952A30310519F40E94241008950E94D1
:1020C000DC0F08950F931F938C010E945210C801DA
:1020D0000E94F60F1F910F910895AB01662757FDDF
:1020E0006095762F0E94241008950F931F938C0102
:1020F0000E946D10C8010E94F60F1F910F91089564
:10210000CB010E94301208950F931F938C010E94FF
:102110008010C8010E94F60F1F910F9108950E9430
:10212000111108950E94F21008950E94E11099275C
:102130000895CB01BA010E94A01008950895089552
:10214000EF92FF920F931F937B018C0122E030E00E
:1021500040E050E00E946D17205C3D4B404F5F4FC8
:10216000CA01B901A80197010E946D1721503040A2
:1021700040405040BB2757FDBA95A52F942F832F81
:102180002F5F3F4F4F4F5F4F8093C50021502093EB
:10219000C400E1ECF0E08081806180838081886010
:1021A00080838081806880831F910F91FF90EF90E2
:1021B0000895982F8091C00085FFFCCF9093C600B2
:1021C0000895809180029091810280589F4F2091C4
:1021D000820230918302821B930B60E870E00E94C0
:1021E00038170895409182025091830280918002B5
:1021F000909181028417950719F48FEF9FEF08954E
:10220000FA01E857FD4F2081CA01019660E870E0AD
:102210000E9438179093830280938202822F99271D
:10222000089580918202909183029093810280931D
:10223000800208951F920F920FB60F9211242F93D0
:102240003F934F935F936F937F938F939F93AF933E
:10225000BF93EF93FF934091C600E0918002F0910D
:102260008102CF01019660E870E00E9438179C015E
:1022700080918202909183022817390739F0E8573C
:10228000FD4F40833093810220938002FF91EF91B4
:10229000BF91AF919F918F917F916F915F914F917E
:1022A0003F912F910F900FBE0F901F90189508959A
:1022B000982F8091C00085FFFCCF9093C6000895B1
:1022C0002F923F924F925F926F927F928F929F9246
:1022D000AF92BF92CF92DF92EF92FF920F931F9334
:1022E000CF93DF93CDB7DEB7A0970FB6F894DEBFDC
:1022F0000FBECDBF6B017C0129013A01611571054B
:102300008105910541F48091C00085FFFCCF80E3F9
:102310008093C6004BC08824992454011E01089460
:10232000211C311C8101080D191DC701B601A30133
:1023300092010E944B17F80160830894811C911C44
:10234000A11CB11CC701B601A30192010E944B1749
:1023500069017A01211531054105510519F70894E4
:1023600081089108A108B108F101E80DF91D089450
:10237000811C911CA11CB11C14C0089481089108F7
:10238000A108B10880818A3018F4982F905D02C0AE
:10239000982F995C8091C00085FFFCCF9093C60078
:1023A000319781149104A104B10439F7A0960FB6B6
:1023B000F894DEBF0FBECDBFDF91CF911F910F917B
:1023C000FF90EF90DF90CF90BF90AF909F908F9055
:1023D0007F906F905F904F903F902F90089520E1F5
:1023E00030E040E050E00E946011089528E030E0C5
:1023F00040E050E00E946011089522E030E040E0AB
:1024000050E00E94601108958091C00085FFFCCFCC
:102410008AE08093C6000895EF92FF920F931F9376
:102420007B018C0197FF0FC08091C00085FFFCCF1E
:102430008DE28093C60010950095F094E094E11C25
:10244000F11C011D111D2AE030E040E050E0C80100
:10245000B7010E9460111F910F91FF90EF900895B6
:10246000FC0107C08091C00085FFFCCF319690939E
:10247000C60090819923B1F70895A0E0B0E0E3E4AD
:10248000F2E10C94D017EC015B016115710519F0B4
:10249000FB0191838083D9908D2D99270E94A217EB
:1024A000892BC9F7FDE2DF1621F4D990CC24C3941F
:1024B00005C08BE2D81609F4D990CC248E010150C6
:1024C000104043E050E063EB70E0C8010E94A014AC
:1024D000892B09F58E010E5F1F4F45E050E066EB3A
:1024E00070E0C8010E94A014892B19F48E01095FC5
:1024F0001F4FA114B10419F0F50111830083C0FE30
:1025000005C060E070E080E89FEFFFC060E070E031
:1025100080E89FE7FAC043E050E06BEB70E0C80151
:102520000E94A014892B61F4A114B10421F0229619
:10253000F501D183C08360E070E080EC9FE7E5C0E7
:1025400088249924EE24FF2487014D2D40534A30DE
:10255000A8F5F2E0CF2A8C2D99279C0128703070C5
:1025600082FF06C0232B81F50894811C911C2CC08E
:10257000232B19F0089481089108D801C701E2E0E3
:10258000880F991FAA1FBB1FEA95D1F7E80EF91E05
:102590000A1F1B1FEE0CFF1C001F111FE40EF11C75
:1025A000011D111D88E9E81689E9F80689E908077F
:1025B00089E1180748F0E4E0CE2A06C04E3F31F426
:1025C000C3FC3AC0F8E0CF2AD990BFCF453311F011
:1025D000453191F589918D3219F480E1C82A05C001
:1025E0008B3219F021E030E003C0899122E030E025
:1025F000482F40534A3018F420E030E007C0C21B97
:10260000D30B1AC0ECE020383E075CF4C901880FF8
:10261000991F880F991F280F391F220F331F240F6E
:10262000311D499140534A3068F3C4FE03C03095D0
:1026300021953F4F820E931EDD2492E0692E712C6E
:102640006C207D20C1FE07C0A114B10421F02197A8
:10265000F501D183C083C801B7010E94BA157B017F
:102660008C01C0FE06C0672821F017FB109517F9F2
:1026700010955701680120E030E040E050E0C801CB
:10268000B7010E941D15882309F43DC097FE09C0BB
:10269000C2EDD0E0909481949108939400E210E010
:1026A00010C0CAEED0E0FACFFE01259135914591D8
:1026B0005491C601B5010E9470165B016C01801A2D
:1026C000910A8016910684F7159507950115110555
:1026D00011F02497F6CF860175018C2D880F8D2D72
:1026E000881F8F3F51F020E030E040E050E0C6010D
:1026F000B5010E941D15882331F482E290E0909389
:10270000090380930803C801B701EEE0CDB7DEB737
:102710000C94EC17A0E0B0E0E0E9F3E10C94CD17E5
:102720008C012B01EA016115710519F0FB01918300
:102730008083209749F0CE010297839728F060E0CC
:1027400070E080E090E0F7C0F801E1908F018E2DFD
:1027500099270E94A217892BB9F7FDE2EF1631F4F1
:10276000F801E1908F013324339407C0FBE2EF16A8
:1027700019F4F801E1908F013324209719F0C0314A
:10278000D105E1F4F0E3EF1679F4F80180818837A0
:1027900011F0883549F4F801E1800E5F1F4FF2E037
:1027A0003F2AC0E1D0E00AC0209741F480E3E81658
:1027B00019F4C8E0D0E002C0CAE0D0E0C830D105CA
:1027C00071F0C930D10524F4C230D10519F50DC01E
:1027D000CA30D10581F0C031D105E1F415C0A12C7A
:1027E000B12CC12CB0E1DB2E22C0A12CB12CC12C0C
:1027F000A0E4DA2E1CC0FCECAF2EFCECBF2EFCECEF
:10280000CF2EFCE0DF2E13C0A12CB12CC12CE8E0B0
:10281000DE2E0DC09E01442737FD4095542F60E009
:1028200070E080E090E80E944B1759016A0120E0B7
:1028300030E040E050E060E03E01882477FC809486
:10284000982C70EDF72EFE0CE9E0EF1570F48E2D4C
:1028500081548A3118F499ECF92E06C08E2D8156D8
:102860008A3150F589EAF82EFE0C8F2D99278C17A6
:102870009D0714F567FD1CC0A216B306C406D50655
:10288000B0F0CA01B901A40193010E94AD179B01E8
:10289000AC012F0D311D411D511D2130F0E03F07CE
:1028A000F0E04F07F0E85F0710F461E001C06FEF60
:1028B000F801E1908F01C5CF4114510481F06623E6
:1028C00031F001501040F2011183008308C031FE45
:1028D0001AC002501040F2011183008314C067FF38
:1028E00012C030FE05C020E030E040E050E804C0F7
:1028F0002FEF3FEF4FEF5FE782E290E09093090305
:102900008093080316C030FE08C05095409530955E
:1029100021953F4F4F4F5F4F0CC057FF0AC082E2D7
:1029200090E090930903809308032FEF3FEF4FEF60
:102930005FE7CA01B901E1E1CDB7DEB70C94E91751
:10294000FB01DC014150504088F08D9181341CF036
:102950008B350CF4805E659161341CF06B350CF4A2
:10296000605E861B611171F3990B0895881BFCCF83
:102970005058BB27AA270ED075C166D130F06BD155
:1029800020F031F49F3F11F41EF45BC10EF4E0958A
:10299000E7FB51C1E92F77D180F3BA1762077307BC
:1029A0008407950718F071F49EF58FC10EF4E09539
:1029B0000B2EBA2FA02D0B01B90190010C01CA01F9
:1029C000A0011124FF27591B99F0593F50F4503EA4
:1029D00068F11A16F040A22F232F342F4427585F96
:1029E000F3CF469537952795A795F0405395C9F7AE
:1029F0007EF41F16BA0B620B730B840BBAF0915066
:102A0000A1F0FF0FBB1F661F771F881FC2F70EC004
:102A1000BA0F621F731F841F48F4879577956795D7
:102A2000B795F7959E3F08F0B3CF9395880F08F0C0
:102A30009927EE0F979587950895D9D008F481E0EE
:102A400008950CD00FC107D140F0FED030F021F432
:102A50005F3F19F0F0C0511139C1F3C014D198F3A0
:102A60009923C9F35523B1F3951B550BBB27AA270F
:102A700062177307840738F09F5F5F4F220F331F81
:102A8000441FAA1FA9F333D00E2E3AF0E0E830D04D
:102A900091505040E695001CCAF729D0FE2F27D050
:102AA000660F771F881FBB1F261737074807AB071E
:102AB000B0E809F0BB0B802DBF01FF2793585F4F93
:102AC0002AF09E3F510568F0B6C000C15F3FECF3AD
:102AD000983EDCF3869577956795B795F7959F5F58
:102AE000C9F7880F911D9695879597F90895E1E0AC
:102AF000660F771F881FBB1F621773078407BA070B
:102B000020F0621B730B840BBA0BEE1F88F7E09565
:102B1000089504D06894B111D9C00895BCD088F04C
:102B20009F5790F0B92F9927B751A0F0D1F0660FB9
:102B3000771F881F991F1AF0BA95C9F712C0B130D4
:102B400081F0C3D0B1E00895C0C0672F782F8827E7
:102B5000B85F39F0B93FCCF3869577956795B39513
:102B6000D9F73EF490958095709561957F4F8F4F82
:102B70009F4F0895E89409C097FB3EF49095809587
:102B8000709561957F4F8F4F9F4F9923A9F0F92F33
:102B900096E9BB279395F695879577956795B795B1
:102BA000F111F8CFFAF4BB0F11F460FF1BC06F5F97
:102BB0007F4F8F4F9F4F16C0882311F096E911C0A9
:102BC000772321F09EE8872F762F05C0662371F0CA
:102BD00096E8862F70E060E02AF09A95660F771FDE
:102BE000881FDAF7880F9695879597F90895990FBA
:102BF0000008550FAA0BE0E8FEEF16161706E807C7
:102C0000F907C0F012161306E407F50798F0621BE7
:102C1000730B840B950B39F40A2661F0232B242BBC
:102C2000252B21F408950A2609F4A140A6958FEFDB
:102C3000811D811D089597F99F6780E870E060E02D
:102C400008959FEF80EC089500240A941616170645
:102C500018060906089500240A941216130614068D
:102C600005060895092E0394000C11F4882352F0F0
:102C7000BB0F40F4BF2B11F460FF04C06F5F7F4FA8
:102C80008F4F9F4F089557FD9058440F551F59F08F
:102C90005F3F71F04795880F97FB991F61F09F3F49
:102CA00079F087950895121613061406551FF2CF72
:102CB0004695F1DF08C0161617061806991FF1CFC2
:102CC00086957105610508940895E894BB276627E9
:102CD0007727CB0197F908958ADF08F48FEF0895DD
:102CE0000BD0C0CFB1DF28F0B6DF18F0952309F084
:102CF000A2CFA7CF1124EACFC6DFA0F3959FD1F3CF
:102D0000950F50E0551F629FF001729FBB27F00D99
:102D1000B11D639FAA27F00DB11DAA1F649F6627EE
:102D2000B00DA11D661F829F2227B00DA11D621F3D
:102D3000739FB00DA11D621F839FA00D611D221FF7
:102D4000749F3327A00D611D231F849F600D211DDB
:102D5000822F762F6A2F11249F5750408AF0E1F07E
:102D600088234AF0EE0FFF1FBB1F661F771F881FC7
:102D700091505040A9F79E3F510570F05CCFA6CF0F
:102D80005F3FECF3983EDCF3869577956795B795B2
:102D9000F795E7959F5FC1F7FE2B880F911D9695DC
:102DA000879597F9089511F40EF44BCF4AC073DF5D
:102DB000D0F39923D9F3CEF39F57550B87FF51D00A
:102DC00056959795B0E020F4660F771F881FBB1FBC
:102DD0001F930F9300249001A0018001F001A0E84F
:102DE0000E0F1F1F0A1E511D601B710B8009B50BB2
:102DF00048F4600F711F801DB51F0E1B1F0B0A0AC0
:102E0000510907C02E0F3F1F4A1F0E0F1F1F0A1E1A
:102E1000511D660F771F881FBB1FA695F795E79575
:102E2000F8F60617170708065B07211D311D411D1F
:102E30000F911F91B901842F9158880F969587950E
:102E400008959F3F49F0915028F4869577956795AE
:102E5000B7959F5F80389F4F880F9695879597F914
:102E6000089591505040660F771F881FD2F708953C
:102E700097FB092E07260AD077FD04D049D006D04B
:102E800000201AF4709561957F4F0895F6F790959C
:102E900081959F4F0895A1E21A2EAA1BBB1BFD012D
:102EA0000DC0AA1FBB1FEE1FFF1FA217B307E40729
:102EB000F50720F0A21BB30BE40BF50B661F771F81
:102EC000881F991F1A9469F7609570958095909561
:102ED0009B01AC01BD01CF01089597FB092E05268A
:102EE0000ED057FD04D0D7DF0AD0001C38F450951F
:102EF0004095309521953F4F4F4F5F4F0895F6F71E
:102F000090958095709561957F4F8F4F9F4F089555
:102F1000AA1BBB1B51E107C0AA1FBB1FA617B707FF
:102F200010F0A61BB70B881F991F5A95A9F780951B
:102F30009095BC01CD010895EE0FFF1F0590F4910F
:102F4000E02D0994911106C0803219F08950855006
:102F5000D0F70895992788270895629FD001739F1D
:102F6000F001829FE00DF11D649FE00DF11D929F25
:102F7000F00D839FF00D749FF00D659FF00D992764
:102F8000729FB00DE11DF91F639FB00DE11DF91F88
:102F9000BD01CF01112408952F923F924F925F926D
:102FA0006F927F928F929F92AF92BF92CF92DF9259
:102FB000EF92FF920F931F93CF93DF93CDB7DEB7BE
:102FC000CA1BDB0B0FB6F894DEBF0FBECDBF099452
:102FD0002A88398848885F846E847D848C849B84A9
:102FE000AA84B984C884DF80EE80FD800C811B81B7
:102FF000AA81B981CE0FD11D0FB6F894DEBF0FBEE6
:08300000CDBFED010895FFCFE3
:103008006875683F204700543A004875683F204D6E
:10301800006F6B007374617274000100490336001D
:10302800FF006B00D100A000B800D500A6000A017F
:1030380099003F018E0074018400A9017C00DE0123
:10304800740013026C00480265007D025D00B20244
:103058005600E7024E001C03460051033D0086035C
:103068003200BB032200F00303003F800040FF0151
:10307800014BEAFF404BEAFF400000A0430000007C
:063088003F010101FFFF02
:00000001FF
