:020000040000FA
:0600000000008A115A2DD8
:08000800F200030E8301F10078
:100010000A088A01F000040883160313DD0001308A
:1000200083120313E7008A1500208A118312031339
:100030000B1C1D288A1147238A11831203130C1CE1
:1000400027288A11CF238A11831203130C108312DD
:1000500003139F1F2E2883120313E7018316031334
:100060005D08840070088A008301710E8300F20E1F
:10007000720E0900831203138B0108008316031309
:10008000200883120313CE0003199B284E08013A5F
:100090000319FE284E08023A031907294E08033AAD
:1000A000031910294E08043A031923294E08053A6A
:1000B000031940294E08063A03199E294E08073AAB
:1000C0000319A0294E08083A0319A7294E08093A2E
:1000D0000319C6294E080A3A0319E5294E080B3AB6
:1000E0000319FA294E080C3A03199B2A4E080D3AB7
:1000F00003199E2A4E08323A0319022A4E08333A4F
:1001000003190D2A4E08343A03191B2A4E08353AB2
:100110000319282A4E08363A0319432A4E08373A5B
:1001200003196C2A4E08FE3A0319AE284E08FF3A0E
:100130000319EF28A02A8A15CD208A1100308A15CC
:100140002F218A1101308A152F218A1100308A153A
:100150002F218A118A1539208A11A02A8A15CD20CB
:100160008A11FE308A152F218A1183160313210864
:1001700083120313CE000319C228FF308A152F21E2
:100180008A11E32883160313210883120313CE0078
:100190004E08031DDF28831603132208831203135E
:1001A000CE0008304E02031CDA28FF308A152F21BA
:1001B0008A11E32800308A152F218A11E3280030A4
:1001C0008A152F218A1100308A152F218A110830B3
:1001D0008A152F218A118A1539208A11A02A8A1599
:1001E000CD208A11FF308A152F218A1101308A15FE
:1001F0002F218A118A1539208A11A02A8316031308
:10020000210883120313D90000304924A02A831641
:100210000313210883120313D90001304924A02AB3
:1002200083160313210883120313CE0083120313D2
:10023000E30083160313220883120313CE008312F4
:100240000313E400A02A8A15CD208A1104308A15F0
:100250002F218A1183120313630883120313CE0024
:100260008A152F218A118312031364088312031342
:10027000CE008A152F218A118A1539208A11A02AC9
:1002800083160313220883120313CE008312031371
:10029000E50083160313230883120313CE00831291
:1002A0000313E600650883120313CE0083120313C1
:1002B000660883120313CF008312031363088312AB
:1002C0000313D00083120313640883120313D100B5
:1002D00050084E06031D702951084F060319A02A25
:1002E00083160313210883120313D9008312031307
:1002F000630883120313CE0083120313650883126D
:100300000313D00083120313660883120313D10072
:10031000803ED20083120313640883120313CF00BC
:10032000803E5202031D96294E08500203189B2955
:1003300001304924A02A00304924A02A5525A02AAA
:1003400083160313210883120313D700A02A8A15EA
:10035000CD208A1108308A152F218A1183120313A8
:10036000CE0183120313851EB82983120313CE0A0C
:10037000831203134E08003003190130CF008A1591
:100380002F218A118A1539208A11A02A831203137A
:100390008B1383160313210883120313DB008316C8
:1003A0000313220883120313DC00831603132308AC
:1003B00083120313DD00831603132408831203132F
:1003C000DE00831203138B17A02A8A15CD208A1111
:1003D0000A308A152F218A118312031360088A15A7
:1003E0002F218A1100308A152F218A118A15392070
:1003F0008A11A02A83160313210883120313CE0047
:10040000FE24A02A83160313210883120313EA0093
:100410006A08831603139200A02A83160313210887
:1004200083120313CE000330CE0504304E04831232
:1004300003139200A02A831203138B138316031352
:10044000210883120313E100831203138B17A02AE0
:10045000831203138B13F8308316031301058312E1
:100460000313CE0083160313210883120313CF0056
:100470000730CF054F084E04831603138100831203
:1004800003138B17A02A8A15CD208A1136308A15BE
:100490002F218A11831203135F088A152F218A11D5
:1004A0008312031305088A152F218A11831603135B
:1004B00005088A152F218A118316031301088A154E
:1004C0002F218A118312031361088A152F218A11A3
:1004D0008A1539208A11A02A8A15CD208A11373031
:1004E0008A152F218A11831203135B088A152F2185
:1004F0008A11831203135C088A152F218A11831233
:1005000003135D088A152F218A11831203135E08D5
:100510008A152F218A118312031360088A152F214F
:100520008A118312031362088A152F218A118A15F2
:1005300039208A11A02A0130D224A02A0030D224E6
:100540008312031308008312031362088312031338
:10055000CC000030831203134C040319B22A01307B
:10056000CD00B52A83120313CD010030831203138B
:100570004D040319C02A000083120313CC03A92AD7
:1005800083160313811281110230831203139F001B
:100590008030831203136104831603139F008A11B2
:1005A000B8268A11831203138B130B113D3083126B
:1005B0000313D305D3176230831603138500831208
:1005C000031353088312031385008101831203135D
:1005D000E701831203138B17831203139F1BEC2A6B
:1005E0008B13010883120313CC00831203130B1D1A
:1005F000FD2AFF3083120313CC0083120313670814
:10060000013A031D072B83120313E20A102B8312F6
:1006100003134C0883120313E00083120313E20157
:10062000831203138B17831203136208FF3A031913
:10063000E2038A11B8268A11831203138B133D300B
:1006400083120313D305203083160313850083120E
:10065000031353088312031385008B17A0308316EE
:1006600003139F008A11B8268A11831203139F1F58
:10067000352B8A11B8268A118A11B8268A11E230E0
:100680008316031385009F0183120313080083124E
:1006900003130B100C258312031354080319AF2BFB
:1006A0008312031358080319702B83120313630872
:1006B00083120313C8008312031364088312031305
:1006C000C900FF30C807031CC9034808831203137D
:1006D000E30083120313490883120313E400892BF8
:1006E00083120313630883120313C80083120313D6
:1006F000640883120313C900C80A0319C90A480809
:1007000083120313E30083120313490883120313B4
:10071000E40000308312031359040319AF2B831232
:100720000313630883120313C800831203136408BE
:1007300083120313C9008312031365088312031382
:10074000CA0083120313660883120313CB004A08FE
:100750004806031DAF2B4B084906031955250030E9
:100760008312031355040319CC2B83120313570868
:100770008A15FA208A1183120313C8004808031946
:10078000CC2B08308A152D218A1101308A152D2194
:100790008A118A155B208A11831203130800103016
:1007A000831203136002031CDB2B653083120313D7
:1007B0006202031CDD2B4325182C831203136008EF
:1007C000831203135E02031CE72B4325182C8312AC
:1007D00003136008831203135D02031CFF2B8312B3
:1007E00003135C08831203135F02031CFF2B8312A5
:1007F00003135C08FF3A0319FF2B4325182C8312BF
:1008000003136008831203135D020318172C83126D
:1008100003135B08831203135F02031C172C83125C
:1008200003135B08FF3A0319172C4325182C3B25AB
:1008300083120313DF0AFF30831203138F008E012C
:10084000831203136D080319462C831203136C08DB
:10085000031D432C831203136B08031D3B2CFA303A
:1008600083120313D30553088312031385008312E5
:100870000313ED01462C83120313EB031430831290
:100880000313EC00462C83120313EC0383120313AF
:10089000080083120313C600831203135908031DB3
:1008A000532C5525662C0030831203134604031D78
:1008B0005B2C50255C2C4B250030672483120313DE
:1008C000460883120313D80083120313080083120F
:1008D0000313C7003C3083120313970083120313E2
:1008E0005908831203139500831203134708031D4D
:1008F0007F2C831203135908FF3A031D832C8316A0
:1009000003139201892C831203136A0883160313BD
:100910009200831203130800FF3083120313EA00CE
:1009200083120313D80183120313D901FF308312FA
:100930000313D70083120313DA0183120313D601C2
:1009400083120313D40183120313D50183120313FB
:10095000E301E40183120313E501E60183120313AB
:10096000DB0183120313DC0183120313DD01831205
:100970000313DE0183120313DF01FF30831203131D
:10098000E00083120313E10183120313D301530820
:10099000831203138500FF308F008E01831203132F
:1009A000E201080083120313C600FA308312031316
:1009B000D3058312031346080319E22C8312031391
:1009C0005314E52C83120313531583120313530896
:1009D000831203138500ED24080001308A11672477
:1009E0008A11643083120313EB0014308312031353
:1009F000EC00013083120313ED000800831203138F
:100A0000C60046080319082D8312031306170B2D81
:100A1000831203130613080083120313D4018312F5
:100A20000313D50183120313C40183120313851E1C
:100A30001C2D83120313C40A831203135608831256
:100A40000313C5004408C50645080319342D44089E
:100A5000031D342D831203135708FF3A0319342D55
:100A6000013083120313D500831203134408831249
:100A70000313D600080083120313D31553088312FF
:100A800003138500080083120313D3115308831244
:100A9000031385000800831203130612861608004C
:100AA000831203138612061608008312031306121C
:100AB000861208009030FE000630FF0080308A1158
:100AC00000006F268A11000083160313D1007F08EF
:100AD000D0009230D2000630D300831603135008A2
:100AE000D4005108D500FF30D007031CD1035408AF
:100AF00055040319EA2D04305207D400D501D50D51
:100B00005308D5075408FE005508FF0080308A11AD
:100B100000006F268A11000083160313D7007F0898
:100B2000D6005208FE005308FF0080308A110000F2
:100B30006F268A11000083160313D900D5007F08A1
:100B4000D800D40002305207D400D501D50D530887
:100B5000D5075408FE005508FF0080308A110000B8
:100B60006F268A11000083160313D500DB007F086F
:100B7000D400DA00831603135608DA005708DB00A6
:100B8000FF30D607031CD7035A085B040319E32D73
:100B90005808FE005908FF0080308A1100005C26CA
:100BA0008A11000083160313DA00540884008313AB
:100BB000551883175A088000D80A0319D90AD40A8D
:100BC0000319D50ABA2D063083160313D20703186A
:100BD000D30A6D2D8A110000EE2D08008A118C2495
:100BE0008A111A268A15E6238A11831203138B139E
:100BF00000308A1564218A1100308A1564218A1117
:100C0000831203138B178A15B1208A1183120313E1
:100C1000E80068080319122E8A113E208A118A15ED
:100C200023218A118A11A3228A118A11B8268A11D6
:100C3000032E0800831203138B018C018316031308
:100C40008C01573081000C309900043098008030BE
:100C500083120313980018168316031398168C1624
:100C6000831203138B150B17E230831603138500D1
:100C7000873086008312031385018130860002309D
:100C80009F00831603130C10831203139001831625
:100C900003130C14831203131014831203136A0832
:100CA0008316031392000C308312031397009501EF
:100CB000043092008B170800003A0319632E803A23
:100CC00003196A2E00347E08840083137F1883176B
:100CD000000808007F088A007E0882000800003AA9
:100CE0000319772E803A0319812EFF0100347E0804
:100CF000840083137F1883170008FF00840A00080C
:100D000008008A1100006A26FD00FE0FFF03FF0A9B
:100D10008A1100006A26FC007D08FF007C0808009C
:100D200006340034C33406346934003401340034EA
:100D3000C43406346B34003401340034C534063412
:100D40006C34003401340034C63406346D3400345D
:100D500001340034C7340634DC3400340134003448
:100D6000C8340634DE340034013400346400080032
:100D70000000000000000000000000000000000073
:100D800000000000080008346434143400343034A7
:020D900000342D
:10100000831203130C1E3128831603130C1E312880
:10101000831203133A08831203133906031D16289B
:1010200083160313981C31280C12312883120313E2
:101030003908B03E83120313B30000300318013E99
:10104000B400330884008313341883170008831214
:101050000313990083120313B90A103039020318DD
:10106000B901831203138C1E3628972183160313AC
:101070000800831203138B1383120313EE1C5628EC
:10108000831203138B178A11B8268A158A11B82682
:101090008A158A11B8268A158A11B8268A158A11E6
:1010A000B8268A15831203138B133C285D20831204
:1010B00003138B1708005D200800831203136E1DB5
:1010C000B0285430642183120313BB01513096239E
:1010D00083120313B00064213030831203134204DF
:1010E00083120313B000962383120313B00064210C
:1010F000831203134308962383120313B000642161
:10110000831203136908962383120313B00064212A
:1011100083120313B00183120313420883120313D3
:1011200030020318A9283008C03EB100003003186F
:10113000013EB2003108840083133218831700087F
:10114000962383120313B100642183120313B00AA0
:101150008B28831203133B086421831203136E113F
:101160000800831203138B138030831203136E0560
:1011700083120313AF00831203133A08831203137D
:1011800039060319C62883120313AF018312031310
:101190008B17831203132F080800831203134108CF
:1011A000D220080083120313AE00831203138B13A3
:1011B000831203136E1DF228831203138B178A11F7
:1011C000B8268A158A11B8268A158A11B8268A1572
:1011D0008A11B8268A158A11B8268A158312031334
:1011E0008B13D828831203132E08132183120313A1
:1011F0008B17080083120313AD00831203136E19BB
:101200000B29EE180B29831203133A0883120313D8
:10121000390603190D2900301229831203132D08F2
:1012200013210130080083120313AC00831203134F
:101230006E15831203132C0883120313C300831249
:101240000313C2010800831203138B1383120313C9
:10125000EE13831203138B1708003D21080083123D
:101260000313AB00831203138B13831203132B0896
:101270003D21831203138B17080083120313A80068
:10128000831203136E1D612910308312031342026F
:1012900003186129420883120313A9008312031360
:1012A000C20A831203132908C03EA90000300318A4
:1012B000013EAA002908840083132A1883172808EE
:1012C000800083160313080083120313A100831206
:1012D00003133A0A83120313A500103025020318E2
:1012E000A50183120313390883120313250603197A
:1012F0009429831203133A08B03E83120313A60005
:1013000000300318013EA700260884008313271825
:10131000831721088000250883120313BA0083165F
:1013200003130C1A94290C16831603130800831256
:1013300003131A0883120313A200831203139818CD
:1013400018121816831203136E1CA8297D237C2BF8
:10135000831603135C0883120313A30030302302A7
:10136000031C772B3B3023020318772BD030A307C5
:1013700009308A00C130230703188A0A8312031335
:101380008200CC29DA29092A332A632AB32AD92AE6
:10139000302B482B532B612B831203132208543A12
:1013A000031D7C2B313083160313DC0083120313DF
:1013B000EE117C2B83120313220883120313BC004B
:1013C000FC30831203132205A300503A0319EE29BF
:1013D000831203136E14EE167D237C2B03308312CD
:1013E00003132205A300013A031DFA2983120313F4
:1013F0006E17FD29831203136E1383120313BB01AF
:101400008312031322089623323083160313DC0061
:101410007C2B83120313220883120313BD00F030C8
:10142000831203132205A300303A03191D2A8312E5
:1014300003136E14EE167D237C2B0F3083120313DF
:10144000220583120313BE0011303E02031C2A2A18
:101450001030BE0083120313220896233330831604
:101460000313DC007C2B831203136908831203131C
:10147000220603195A2A54308A1564218A158312C8
:1014800003133C088A1564218A15831203133D084F
:101490008A1564218A158312031322088A15642190
:1014A0008A15393083160313DC00831203136E137D
:1014B000EE147C2B831203132208962334308316F8
:1014C0000313DC007C2B83120313EE1FA12A54307C
:1014D0008A1564218A1583120313BB0153309623A6
:1014E00083120313A3008A1564218A1530309623D2
:1014F00083120313A3008A1564218A158312031330
:101500003F08962383120313A3008A1564218A15CA
:10151000831203136908962383120313A3008A1509
:1015200064218A15831203133B088A1564218A15E6
:10153000831203136E13EE15303083160313DC0091
:101540007C2B83120313220883120313BF00831220
:101550000313C00183120313220896233530831628
:101560000313DC007C2B831203134008A03E83127C
:101570000313A30000300318013EA40023088400D5
:101580008313241883172208800083120313C00AD0
:101590008312031322089623831203133E08831237
:1015A00003134006031D7C2B363083160313DC0027
:1015B0007C2B831203133B08831203132206031DA3
:1015C000ED2A5230A30083120313EE178312031384
:1015D0003F0883120313C100F12A5330831203130F
:1015E000A300831203136E1F2B2B54308A15642122
:1015F0008A1583120313BB01831203132308962356
:1016000083120313A3008A1564218A1530309623B0
:1016100083120313A3008A1564218A15831203130E
:101620003F08962383120313A3008A1564218A15A9
:10163000831203136908962383120313A3008A15E8
:1016400064218A15831203133B088A1564218A15C5
:10165000831203136E13303083160313DC007C2BCC
:101660008312031322088A1564218A150F3083120E
:101670000313220583120313BE0011303E02031C24
:10168000432B1030BE00383083160313DC007C2B54
:101690008312031322088A1564218A1539308316B0
:1016A0000313DC007C2B8312031322088A156421A8
:1016B0008A1583120313BE0A3A3083160313DC0023
:1016C0007C2B8312031322088A1564218A150230A9
:1016D000831203133E02031C6F2BBE037C2B30309E
:1016E00083160313DC0083120313EE107C2B83128A
:1016F00003136E146E167D23080083120313EE1974
:101700008D2B083083120313A00000308A1564214A
:101710008A1583120313A00B852B08308312031341
:10172000EE05303083160313DC0008008312031328
:10173000A000831203133B0683120313A10083123C
:101740000313BB0183120313211CAA2B5E308312E7
:101750000313BB0683120313A11CB22BBC308312EC
:101760000313BB0683120313211DBA2B61308312AE
:101770000313BB0683120313A11DC22BC2308312B5
:101780000313BB0683120313211ECA2B9D30831241
:101790000313BB0683120313A11ED22B2330831223
:1017A0000313BB0683120313211FDA2B4630831267
:1017B0000313BB0683120313A11FE22B8C30831289
:1017C0000313BB068312031320080800303083166E
:1017D0000313DC0083120313B90183120313BA014C
:1017E00083120313EE0183120313BB01831203134D
:1017F000B601323083120313B80083120313B7000B
:10180000080083120313B8007F0883120313B70084
:101810000800831203130512080083120313B50393
:101820003508031D2E2C831203133608013CB60025
:1018300036080319252C8312031305128312031390
:10184000370883120313B5002E2C831203130516D9
:0E18500083120313380883120313B500080037
:02400E00103F61
:00000001FF
