:100000000C9485000C94AD000C94AD000C94AD00E4
:100010000C94AD000C94AD000C94AD000C94AD00AC
:100020000C94AD000C94AD000C94AD000C94AB0797
:100030000C94AD000C94AD000C94AD000C94AD008C
:100040000C94B4160C94AD000C9491150C94AD0066
:100050000C94AD000C94AD000C94AD000C94AD006C
:100060000C94AD000C94AD000639652C033AA23B0C
:10007000593C1EBAE03D633BF43E75FF4E3F317282
:10008000113F800000000540B504F441A00001418B
:10009000E2463241A0000040E246303F80000005C9
:1000A00041778C4F40C32CE24117BF24C1A48DD9A6
:1000B000C0E1D8A1C05B6782000024272A00002588
:1000C000282B000023262904040404040404040249
:1000D00002020202020303030303030102040810E5
:1000E00020408001020408102001020408102000B2
:1000F00000000700020100000304060000000000E9
:1001000000000000BA0EF913161511241FBECFEF20
:10011000D4E0DEBFCDBF11E0A0E0B1E0EEEAF6E34F
:1001200002C005900D92AC30B107D9F713E0ACE0F6
:10013000B1E001C01D92A335B107E1F711E0CAE0BB
:10014000D1E004C02297FE010E94521BC430D107A7
:10015000C9F70E9446140C94561B0C940000CF93D0
:10016000DF93DC01AC58BF4F8C91A457B0408F3166
:1001700019F480E090E027C0AD58BF4F8C91A35791
:10018000B040E82FFF2783E0EE0FFF1F8A95E1F7CD
:10019000EA0FFB1FEB58FF4FEB0188E0099001923B
:1001A0008150E1F7FD01EC58FF4F80818F5F808324
:1001B000FD01ED58FF4F80818F5F80838F3108F004
:1001C000108281E090E0DF91CF9108952F923F92CD
:1001D0004F925F926F927F928F929F92AF92BF9257
:1001E000CF92DF92EF92FF920F931F93CF93DF9303
:1001F000CDB7DEB728970FB6F894DEBF0FBECDBFE0
:100200009C01FC01EE58FF4F9081892F8F5F808306
:100210008F3108F01082F901EC58FF4F8081815036
:100220008083E92FFF2793E0EE0FFF1F9A95E1F7F8
:10023000E20FF31FDE011196EB58FF4F88E00190AB
:100240000D928150E1F7988529803A804B805C803F
:100250006D807E808F80222D332D442D552D662D6F
:10026000772D882D28960FB6F894DEBF0FBECDBF30
:10027000DF91CF911F910F91FF90EF90DF90CF9082
:10028000BF90AF909F908F907F906F905F904F90B6
:100290003F902F900895CF93DF93EC012B893C89F9
:1002A0004D895E898F89988DA98DBA8D2817390758
:1002B0004A075B0711F528AD39AD4AAD5BAD8CAD92
:1002C0009DADAEADBFAD281739074A075B07A9F44E
:1002D00060E0FE01EF59FF4FC35ADF4F288139819B
:1002E0004A815B8180819181A281B381281739077E
:1002F0004A075B0719F461E001C060E0862F992787
:10030000DF91CF910895EFE6F0E0808182608083F5
:100310000895EFE6F0E080818F7D808380818D7F7E
:1003200080830895662321F4809181008B7F29C00A
:10033000613049F4809181008B7F809381008091AE
:100340008100826015C0623049F4809181008B7F0A
:100350008093810080918100826018C0633071F4C5
:1003600080918100846080938100809181008D7FE5
:1003700080938100809181008E7F0DC080918100EB
:10038000846080938100809181008D7F80938100C3
:10039000809181008160809381000895E0E8F0E021
:1003A0001082A1E8B0E01C921092820010926F00BF
:1003B0002C912F7E2C932C9128602C9320812D7FC3
:1003C000208320812E7F208320812F77208320810E
:1003D0002F7B208320812F7D208320812F7E2083EF
:1003E00064E00E9492018FEF9FEF909389008093C9
:1003F00088000895709389006093880008954030C4
:1004000080E0580781E0680780E07807F8F0493F0E
:100410008FEF580787E0680780E0780740F4F3E043
:100420007695679557954795FA95D1F70FC0413C5A
:100430008FEF58078FE3680780E0780748F4E6E01D
:100440007695679557954795EA95D1F7CA0108952E
:1004500041308FEF58078FEF680780E0780728F466
:10046000BB27A72F962F852F089541308CEF580773
:100470008FEF680783E0780718F08FEF9FEF0895FC
:100480002AE076956795579547952A95D1F7CA0141
:100490000895403080E0580781E0680780E07807E1
:1004A00018F480E090E00895493F8FEF580787E007
:1004B000680780E0780718F481E090E00895413CF7
:1004C0008FEF58078FE3680780E0780718F482E021
:1004D00090E0089541505F4F6F4F704018F483E0F3
:1004E00090E0089584E090E008950F931F938C01AD
:1004F0000E94280CC80185960E94280CC801865BC2
:100500009F4F0E94280C1F910F910895CF93DF9366
:10051000EC010E941F0C882379F0CE0185960E9481
:100520001F0C882349F0CE01865B9F4F0E941F0C51
:10053000882319F081E001C080E09927DF91CF91F5
:1005400008956F927F928F92AF92CF92EF920F9316
:10055000CF93DF93CDB7DEB73C010E94470CAA884A
:10056000C988E8880F852E854C855D85682DC30177
:1005700085960E94470CAA8CC98CE88C0F892E891D
:100580004C895D896B89C301865B9F4F0E94470C34
:10059000C3010E94CE01EFE6F0E080818F7D808371
:1005A00080818D7F808382E790E0680E791EF30161
:1005B000119211921082DF91CF910F91EF90CF9015
:1005C000AF908F907F906F9008950F931F93CF936C
:1005D000DF93EC0180916F008F7D80936F0080919D
:1005E0006F008D7F80936F002F85388949895A89E4
:1005F0008CA99DA9AEA9BFA982179307A407B50727
:1006000014F4A90101C0AC018E0101591F4FF8017A
:1006100051834083662757FD6095762FC75ADF4F79
:1006200088819981AA81BB81C955D0404817590753
:100630006A077B0714F4AC01BD01F80151834083C4
:10064000662757FD6095762FCE010E94570BF80163
:1006500040815181662757FD6095762FCE018596A2
:100660000E94570BF80140815181662757FD609524
:10067000762FCE01865B9F4F0E94570BDF91CF9163
:100680001F910F9108956F927F928F92AF92CF92A8
:10069000EF920F93CF93DF93CDB7DEB73C010E946B
:1006A000470CAA88C988E8880F852E854C855D850A
:1006B000682DC30185960E94470CAA8CC98CE88CD2
:1006C0000F892E894C895D896B89C301865B9F4F99
:1006D0000E94470CC3010E94CE01EFE6F0E080814A
:1006E0008F7D808380818D7F808382E790E0680E9C
:1006F000791EF301119211921082DF91CF910F9127
:10070000EF90CF90AF908F907F906F900895CF92A1
:10071000DF92EF92FF920F931F936C017A018B018E
:10072000EFE6F0E080818F7D808380818D7F808304
:10073000C6010E94FF019093890080938800B80150
:10074000A701C6010E944902682FC6010E949201BA
:100750001F910F91FF90EF90DF90CF900895EF924F
:10076000FF920F931F937C018B010E94330E012F88
:10077000110F110B602FC7010E94330E1F910F91B3
:10078000FF90EF900895EF92FF920F931F937A01DD
:1007900003E111E0462F682FC8010E94260E6BE08E
:1007A000C8010E94330EB701C8010E94AF03C801FF
:1007B0000E94CC0E1F910F91FF90EF900895EF9241
:1007C000FF920F931F937A0103E111E0462F682FE8
:1007D000C8010E94260E65E0C8010E94330EB701D1
:1007E000C8010E94AF03C8010E94CC0E1F910F9157
:1007F000FF90EF900895EF92FF920F931F937A016D
:1008000003E111E0462F682FC8010E94260E69E01F
:10081000C8010E94330EB701C8010E94AF03C8018E
:100820000E94CC0E1F910F91FF90EF9008950F93AF
:100830001F93462F03E111E0682FC8010E94260E86
:1008400060E1C8010E94330EC8010E94CC0E1F91C6
:100850000F910895CF93DF93CDB7DEB760970FB6B2
:10086000F894DEBF0FBECDBF8091120180FF05C09E
:1008700060E089E491E00E9473108091120181FF91
:1008800006C04AEF60E089E491E00E94B2108091D6
:10089000D101882329F41092120110920E015CC03C
:1008A0008DE591E00E94E60029873A874B875C87B7
:1008B0006D877E878F87988BDE011196FE013996B2
:1008C00088E001900D928150E1F749815A816627B5
:1008D00057FD6095762F8DE591E00E94710B4B815D
:1008E0005C81662757FD6095762F82E891E00E9433
:1008F000710B4D815E81662757FD6095762F87EAE3
:1009000091E00E94710B8F8140E051E0481B51093A
:10091000662757FD6095762F9CE0440F551F661F94
:10092000771F9A95D1F78DE591E00E94870388851E
:10093000809312018DE591E00E94E50282E08093B0
:100940000F01809310018093110187E080930E01C5
:100950008DE591E00E94830160960FB6F894DEBFAA
:100960000FBECDBFDF91CF9108958DE591E00E943C
:10097000750280910E01882339F410920F011092B4
:10098000100110921101C2C0823011F0873091F530
:100990008DE591E00E944B01882309F4E0C18DE5CB
:1009A00091E00E94890110920F01109210011092A3
:1009B000110180910E018230D1F410920E018091CC
:1009C00000018F3F39F0409170015091710162E058
:1009D0000E94C303809101018F3F09F4C0C140917F
:1009E00095015091960163E00E94C30308950E940F
:1009F0002A040895833009F08EC080910F0183305E
:100A000021F58DE591E00E941F0C8823F1F01092F2
:100A10000F0140E050E060E070E08DE591E00E9461
:100A2000A30B40E050E060E070E08DE591E00E94B3
:100A3000710B61E08DE591E00E94490D809100010C
:100A40008F3F19F062E00E941704809110018330FB
:100A500021F582E891E00E941F0C8823F1F01092AA
:100A6000100140E050E060E070E082E891E00E9418
:100A7000A30B40E050E060E070E082E891E00E946B
:100A8000710B61E082E891E00E94490D80910101C3
:100A90008F3F19F063E00E941704809111018330A9
:100AA00021F587EA91E00E941F0C8823F1F0109253
:100AB000110140E050E060E070E087EA91E00E94C0
:100AC000A30B40E050E060E070E087EA91E00E9414
:100AD000710B61E087EA91E00E94490D809102016B
:100AE0008F3F19F064E00E94170480910F01882362
:100AF00009F035C180911001882309F030C180913F
:100B00001101882309F02BC110920E018DE591E0AF
:100B10000E9489010895813009F043C080910F013E
:100B2000813089F480916B01882369F410920F0160
:100B3000809100018F3F39F0409170015091710117
:100B400062E00E94DF0380911001813089F480917E
:100B50009001882369F410921001809101018F3F68
:100B600039F0409195015091960163E00E94DF03B6
:100B700080911101813009F0B8CF8091B5018823AF
:100B800009F0B3CF10921101809102018F3F09F457
:100B9000ACCF4091BA015091BB0164E00E94DF03E9
:100BA000A4CF843009F057C080910F018430C1F484
:100BB0008DE591E00E941F0C882391F040E050E009
:100BC00060E070E08DE591E00E94A30B61E08DE5AF
:100BD00091E00E94490D85E080930F0180930E0102
:100BE000809110018430C1F482E891E00E941F0CD2
:100BF000882391F040E050E060E070E082E891E00E
:100C00000E94A30B61E082E891E00E94490D85E01B
:100C10008093100180930E0180911101843009F0BE
:100C20009EC087EA91E00E941F0C882309F497C0B8
:100C300040E050E060E070E087EA91E00E94A30BA2
:100C400061E087EA91E00E94490D85E080931101FF
:100C500080930E010895853009F081C080910F01C5
:100C6000853039F58DE591E00E94540B882309F118
:100C70008091700190917101A0917201B091730106
:100C80008093780190937901A0937A01B0937B01CE
:100C900010920F018DE591E00E9489018091000181
:100CA0008F3F39F0409178015091790162E00E94C4
:100CB000FB0380911001853039F582E891E00E94B4
:100CC000540B882309F18091950190919601A09190
:100CD0009701B091980180939D0190939E01A093FC
:100CE0009F01B093A001109210018DE591E00E9448
:100CF0008901809100018F3F39F040919D01509111
:100D00009E0162E00E94FB0380911101853039F55C
:100D100087EA91E00E94540B882309F18091BA017F
:100D20009091BB01A091BC01B091BD018093C20123
:100D30009093C301A093C401B093C5011092110117
:100D40008DE591E00E948901809100018F3F39F08B
:100D50004091C2015091C30162E00E94FB030895DB
:100D60000F931F930DE511E0C8010E94CE01C80149
:100D70000E94890103E111E062E0C8010E941A0E9D
:100D800063E0C8010E941A0E64E0C8010E941A0EB6
:100D90001F910F91089580910F01863041F4809149
:100DA0006B01882321F08DE591E00E94120D809166
:100DB0001001863041F480919001882321F082E86F
:100DC00091E00E94120D80911101863041F48091D2
:100DD000B501882321F087EA91E00E94120D089561
:100DE00080910F01843051F48DE591E00E941F0C39
:100DF000882321F48DE591E00E94120D809110016D
:100E0000843051F48DE591E00E941F0C882321F479
:100E100082E891E00E94120D80911101843051F41A
:100E20008DE591E00E941F0C882321F487EA91E070
:100E30000E94120D089580910F01833051F48DE5C9
:100E400091E00E941F0C882321F48DE591E00E941F
:100E5000120D80911001833051F482E891E00E94DC
:100E60001F0C882321F482E891E00E94120D8091EA
:100E70001101833051F487EA91E00E941F0C88230E
:100E800021F487EA91E00E94120D089580910F01EC
:100E9000853051F48DE591E00E94540B882321F4B4
:100EA0008DE591E00E94DF0B80911001853051F4B7
:100EB00082E891E00E94540B882321F482E891E0BB
:100EC0000E94DF0B80911101853051F487EA91E097
:100ED0000E94540B882321F487EA91E00E94DF0BE3
:100EE000089580916B01882321F08DE591E00E94A7
:100EF000DF0B80919001882321F082E891E00E942D
:100F0000DF0B8091B501882321F087EA91E00E94F0
:100F1000DF0B089580916B01882361F04091CC0133
:100F20005091CD01662757FD6095762F8DE591E0B4
:100F30000E94EB0B80919001882361F04091CC01DD
:100F40005091CD01662757FD6095762F82E891E09C
:100F50000E94EB0B08951F920F920FB60F9211246F
:100F60002F933F934F935F936F937F938F939F93B1
:100F7000AF93BF93EF93FF9380910E018230D9F02E
:100F8000833019F40E941B071FC0813019F40E949E
:100F900071071AC0843019F40E94F00615C085301C
:100FA00019F40E94460710C0863019F40E94CB063F
:100FB0000BC0873019F40E948A0706C01092CE0138
:100FC0008DE591E00E948901FF91EF91BF91AF9172
:100FD0009F918F917F916F915F914F913F912F9151
:100FE0000F900FBE0F901F901895EF92FF920F93E6
:100FF0001F93CF93DF93CDB7DEB728970FB6F89442
:10100000DEBF0FBECDBF1091180180911C01893049
:1010100009F4C3C18A30F0F4843009F41CC185306E
:1010200060F4813009F490C0813090F1823009F48D
:1010300097C0833009F02BC3CCC0863009F46CC153
:10104000863008F420C1873009F482C1883009F065
:101050001EC394C18F3009F4B8C2803168F48B305C
:1010600009F4E1C18B3008F4BFC18C3009F489C2A6
:101070008D3009F00CC397C28131E1F0813108F461
:10108000B6C2823109F447C08F3F09F000C3EBC2FA
:10109000412F60E083E191E00E94260E60E083E151
:1010A00091E00E94330E61E083E191E00E94330EF3
:1010B00064E0E5C2809120019927982F882720912C
:1010C0001F01820F911D9A838983809122019927A4
:1010D000982F882720912101820F911D9C838B835B
:1010E0008091BA019091BB019E838D8380911D01F7
:1010F0008F8380911E018887BE016F5F7F4F8DE5D2
:1011000091E00E94AF0080910E01873009F4BFC2C8
:101110000E942A04BCC2412F60E083E191E00E945A
:10112000260E62E183E191E00E94330E60910E0190
:1011300083E191E00E94330E60E08091D1018F3114
:1011400009F09DC261E09BC2123011F461E00BC056
:10115000133011F461E012C0143011F561E019C0D0
:10116000123049F460E08DE591E00E94490D86E07F
:1011700080930F0115C0133049F460E082E891E0DC
:101180000E94490D86E0809310010AC0143041F49A
:1011900060E087EA91E00E94490D86E080931101AA
:1011A00086E080930E0180911D0140E051E0481BD4
:1011B0005109662757FD6095762F1CE0440F551F97
:1011C000661F771F1A95D1F78DE591E00E9487037E
:1011D0005EC280911E019927382F222780911D0120
:1011E000280F311D123081F479010027F7FC00959A
:1011F000102FB801A7018DE591E00E94A30BB80163
:10120000A7018DE591E011C0133091F47901002719
:10121000F7FC0095102FB801A70182E891E00E9429
:10122000A30BB801A70182E891E00E94710B2FC2C5
:10123000143009F02CC279010027F7FC0095102F1B
:10124000B801A70187EA91E00E94A30BB801A701AA
:1012500087EA91E0EACF123029F4E0907001F09033
:101260007101D4C0133029F4E0909501F0909601FB
:10127000CDC0143019F0EE24FF24C8C0E090BA01AC
:10128000F090BB01C3C080911F019927582F4427BC
:1012900080911E01480F511D123051F481E080935E
:1012A0000F01662757FD6095762F8DE591E017C0F9
:1012B000133051F481E080931001662757FD60954B
:1012C000762F82E891E00BC0143059F481E08093CE
:1012D0001101662757FD6095762F87EA91E00E94FD
:1012E000710B80911D0140E051E0481B51096627B8
:1012F00057FD6095762FFCE0440F551F661F771F42
:10130000FA95D1F78DE591E00E9487038DE591E094
:101310000E94750281E0A0C1123039F48DE591E0A0
:101320000E94260D10920F01B2C1133039F482E8E9
:1013300091E00E94260D10921001A9C1143009F00D
:10134000A6C187EA91E00E94260D109211019FC16B
:10135000123029F480911D018093000198C113304F
:1013600029F480911D018093010191C1143009F08D
:101370008EC180911D018093020189C1123029F430
:1013800080911D0180930C0182C1133009F07FC14F
:1013900080911D0180930D017AC1123021F484E007
:1013A00080930F010AC0133021F484E08093100170
:1013B00004C0143011F41093110180911D0140E01C
:1013C00051E0481B5109662757FD6095762FECE0E8
:1013D000440F551F661F771FEA95D1F78DE591E001
:1013E0000E94870384E038C1123029F4E09078012C
:1013F000F09079010BC0133029F4E0909D01F0903A
:101400009E0104C0E090C201F090C301412F60E052
:1014100083E191E00E94260E64E083E191E00E9466
:10142000330EB701DFC080911F019927582F442741
:1014300080911E01480F511D809121019927F82E9E
:10144000EE2480912001E80EF11C1230A1F56627F0
:1014500057FD6095762F8DE591E00E94710B80918C
:101460000D01823091F4A701662757FD6095762F14
:101470008091950190919601A0919701B09198016A
:10148000480F591F6A1F7B1F13C04091950150914F
:1014900096016091970170919801833049F4C701DA
:1014A000AA2797FDA095BA2F481B590B6A0B7B0BF7
:1014B00082E891E035C01330A9F5662757FD6095A5
:1014C000762F82E891E00E94710B80910C018230AE
:1014D00091F4A701662757FD6095762F80917001E2
:1014E00090917101A0917201B0917301480F591F41
:1014F0006A1F7B1F13C04091700150917101609170
:10150000720170917301833049F4C701AA2797FDD6
:10151000A095BA2F481B590B6A0B7B0B8DE591E008
:101520000E94710B4091BA015091BB016091BC01C6
:101530007091BD0187EA91E00E94710B80911D01BD
:1015400040E051E0481B5109662757FD6095762F12
:101550003CE0440F551F661F771F3A95D1F78DE584
:1015600091E00E9487038DE591E00E94E50282E010
:1015700080930E0180930F018093100180931101DD
:101580006DC0123019F48DE591E00AC0133019F4E2
:1015900082E891E005C0143009F079C087EA91E053
:1015A0000E94C70B74C0123019F48DE591E00AC097
:1015B000133019F482E891E005C0143009F067C0D7
:1015C00087EA91E00E94AF0B62C0412F60E083E1A7
:1015D00091E00E94260E6FE083E191E00E94330EBD
:1015E00060E070E083E191E00E94AF034CC01230F4
:1015F00049F460E08DE591E00E94490D83E080931D
:101600000F0114C0133041F460E082E891E00E94C1
:10161000490D109310010AC0143041F460E087EACC
:1016200091E00E94490D83E08093110180911D019A
:1016300040E051E0481B5109662757FD6095762F21
:101640002CE0440F551F661F771F2A95D1F78DE5B3
:1016500091E00E94870383E080930E018DE591E085
:101660000E94830114C0412F60E083E191E00E9459
:10167000260E6FEF83E191E00E94330E60E083E17C
:1016800091E00E94330E83E191E00E94CC0E2896F7
:101690000FB6F894DEBF0FBECDBFDF91CF911F9183
:1016A0000F91FF90EF90089580E090E008950F93E0
:1016B0001F938C01CB01BA0122E030E040E050E002
:1016C0000E94211B50954095309521953F4F4F4FDB
:1016D0005F4FF801278F30A341A352A31F910F91B1
:1016E0000895CF93DF93EC014F8B588F698F7A8FDA
:1016F0008B899C89AD89BE89481759076A077B0782
:1017000014F061E001C060E0CE010E94490D2F8914
:10171000388D498D5A8D8B899C89AD89BE89281B4E
:10172000390B4A0B5B0B57FF07C05095409530951E
:1017300021953F4F4F4F5F4F2F87388B498B5A8BE7
:10174000DF91CF910895FC01438B548B658B768B91
:101750004789508D618D728D0E94710B08950F9392
:101760001F938C0160E00E94490DC8010E94120D78
:10177000F80183899489A589B6890197A109B109DE
:10178000838B948BA58BB68B1F910F9108950F932C
:101790001F938C0161E00E94490DC8010E94120D47
:1017A000F80183899489A589B6890196A11DB11D87
:1017B000838B948BA58BB68B1F910F910895FC01A1
:1017C0008185882321F0CF010E94C70B0895CF01A6
:1017D0000E94AF0B0895EF92FF920F931F93CF9348
:1017E000DF93EC017A018B018F8D98A1A9A1BAA199
:1017F0002F85388949895A89820F931FA41FB51FE5
:101800008F8F98A3A9A3BAA3181619061A061B0648
:101810007CF4CE010E94DF0B8F8D98A1A9A1BAA103
:101820008E199F09A00BB10B8F8F98A3A9A3BAA300
:10183000DF91CF911F910F91FF90EF900895FC01E0
:1018400083A10E94F717009711F081E090E00895BE
:10185000CF93DF93EC012F89388D498D5A8D8B8979
:101860009C89AD89BE89281739074A075B0741F073
:10187000CE010E941F0C882329F08985882311F44A
:101880001E8602C081E08E87DF91CF9108958F92EE
:101890009F92AF92CF92EF920F931F934C01162F0E
:1018A000BA01422F202F0A2D0E945C0DF4011587EA
:1018B000138A148A158A168A178A108E118E128E30
:1018C000138E148E158E168EE3A2C4A261E0C4019D
:1018D0000E94490DC4010E94280C1F910F91EF90A6
:1018E000CF90AF909F908F9008958F929F92AF92DC
:1018F000CF92EF920F931F934C01162FBA01422FF4
:10190000202F0A2D0E945C0DF4011587138A148A7A
:10191000158A168A178A108E118E128E138E148EC7
:10192000158E168EE3A2C4A261E0C4010E94490D87
:10193000C4010E94280C1F910F91EF90CF90AF909F
:101940009F908F900895CF93DF93EC01CB01BA0164
:101950006A837B838C839D831616170618061906E7
:101960009CF42E813F81442737FD4095542F0E94DF
:10197000CD1A9B01AC0160E070E788E399E30E9417
:10198000FF1A3983288302C019821882DF91CF9110
:1019900008950F931F93CF93DF938C01EB01611593
:1019A000710541F4FC0112821382148215821182A6
:1019B00010821DC0FC01718360832681378144271A
:1019C00037FD4095542F60E070E788E399E30E946B
:1019D000FF1ACA01B9019E01442737FD4095542FD3
:1019E0000E94FF1AF8012283338344835583DF91D9
:1019F000CF911F910F910895FC01778366836081D9
:101A000071810E94C90C0895FC01628173818481F7
:101A1000958120E130E040E050E00E94211BDA0196
:101A2000C90108950F931F938C0161E0FC01828529
:101A30000E94431885E090E00E94131760E0F801CF
:101A400082850E9443181F910F910895CF93DF93D1
:101A5000EC018C858F3F39F060E00E9443188AE0EA
:101A600090E00E9413171886DF91CF910895CF93CD
:101A7000DF93EC018C858F3F39F061E00E944318C1
:101A80008AE090E00E94131781E08887DF91CF9170
:101A90000895FF920F931F938C01F62EFC0183850E
:101AA0000E9443188AE090E00E941317F801F18623
:101AB0001F910F91FF900895BF92CF92DF92EF9206
:101AC000FF920F931F937C016B01B42E122F40E005
:101AD00050E060E070E00E94A30CF701D782C6825C
:101AE0001287B386048761E0812F0E94D91761E0D5
:101AF000F70183850E94D917C7010E94370D61E065
:101B0000C7010E94490D1F910F91FF90EF90DF9048
:101B1000CF90BF900895BF92CF92DF92EF92FF9245
:101B20000F931F937C016B01B42E122F40E050E005
:101B300060E070E00E94A30CF701D782C682128792
:101B4000B386048761E0812F0E94D91761E0F70115
:101B500083850E94D917C7010E94370D61E0C70134
:101B60000E94490D1F910F91FF90EF90DF90CF9051
:101B7000BF900895CF93DF93FC0180E380831182AF
:101B800012821382148215821682178210869F0198
:101B9000DF0180E0ED0119868F5F11968031D1F76A
:101BA000138E148E128E118E158E80E0E9011E8E1A
:101BB0008F5F2F5F3F4F8031C9F713AADF91CF911D
:101BC0000895CF93DF93FC0180E38083118212821A
:101BD0001382148215821682178210869F01DF01FC
:101BE00080E0ED0119868F5F11968031D1F7138E59
:101BF000148E128E118E158E80E0E9011E8E8F5F7D
:101C00002F5F3F4F8031C9F713AADF91CF9108951D
:101C1000FC0180E380831182128213821482158278
:101C200016821782108680E011868F5F3196803190
:101C3000D9F70895DC01FC0183A9853030F4E80F61
:101C4000F11D66A78F5FFD0183AB0895FC01638FD3
:101C5000448F128E118E158E80E0168E8F5F319616
:101C60008031D9F70895DC01FC01828D803130F498
:101C7000E80FF11D668F8F5FFD01828F0895FC01D3
:101C800080E380831182128213821482158216826D
:101C90001782108680E011868F5F31968031D9F7E8
:101CA0000895FC0183A9482F5527BE9620E030E017
:101CB00008C08191861719F481E090E008952F5FA4
:101CC0003F4F24173507A9F780E090E00895462795
:101CD000242F332720FF02C09EE501C090E021FFA2
:101CE00002C08CEB982722FF02C081E6982723FFD1
:101CF00002C082EC982724FF02C08DE9982725FFB7
:101D000002C083E2982726FF02C086E4982747FF97
:101D100002C08CE89827892F99270895FF920F9386
:101D20001F938C01F62EFC01458D0E94670EF80171
:101D3000858F8F2D99271F910F91FF900895FF9206
:101D40000F931F938C01F62EFC0147810E94670EB2
:101D5000F80187838F2D99271F910F91FF90089588
:101D6000019739F46F5F7F4F21F483E191E00E9486
:101D7000E10D08956FEF7FEF81E090E00E94B00EDB
:101D80000895462F55276627772720E030E08AEC14
:101D900092E00E94C91408950F931F93CF93DF938D
:101DA000EC011D8E64E50E94C10E61E5CE010E942A
:101DB0008E0E682FCE010E94C10E6A8D6063CE0127
:101DC0000E948E0E682FCE010E94C10E6B8DCE0137
:101DD0000E948E0E682FCE010E94C10E6C8DCE0126
:101DE0000E948E0E682FCE010E94C10E00E010E00E
:101DF0000BC0FE01E90FF11D668DCE010E948E0E13
:101E0000682FCE010E94C10E902F0F5F1F4F8A8D49
:101E1000981778F36D8DCE010E94C10EDF91CF919E
:101E20001F910F9108951F93CF93DF93EC01162F0D
:101E3000498140FDF7C08881843309F473C085333C
:101E400070F4813321F1823320F4803309F0E8C04B
:101E500013C08233A9F1833309F0E2C040C0863356
:101E600009F481C0863308F46DC0893309F4B4C025
:101E70008A3309F0D5C0B9C0643529F481E3888379
:101E8000477F4983D2C0CE010E94C10ECEC06B8372
:101E9000262F3327C9018C7F907080359105A9F4D6
:101EA000237030702130310511F4406401C04F7B44
:101EB00049831F82612FCE010E949F0E82E393C04F
:101EC0006A83862F807F803311F04162AAC0862FFB
:101ED0008F708C83CE010E949F0E83E384C0CE015D
:101EE0000E94510E8823B9F464E5CE010E94C10E10
:101EF0006B81CE010E94C10E6A81CE010E94C10E8B
:101F0000612FCE010E94C10E89E3888389818F7B76
:101F1000826089838AC01D83612FCE010E949F0E3B
:101F200084E361C0CE010E94510E882319F0CE01D6
:101F30000E94080E1E831886612FCE010E949F0EFC
:101F400085E351C08885FE01E80FF11D61878F5F31
:101F50008887CE010E949F0E98858C81981709F082
:101F600064C086E340C08F81681711F013E503C099
:101F70004068498312E5898186FF2CC064E5CE0163
:101F80000E94C10E1F82612FCE010E949F0E682FFA
:101F9000CE010E94C10E60E3CE010E949F0E682F09
:101FA000CE010E94C10E6E81CE010E949F0E682F4D
:101FB000CE010E94C10E6D81CE010E949F0E682F3E
:101FC000CE010E94C10E6F81CE010E94C10E898197
:101FD0008F7B898380E307C0CE010E94C10E8C8174
:101FE0008F5F8C838AE3888320C0CE010E94C10E5C
:101FF0008C81823018F081508C8317C080E38883F5
:1020000019821A821B821C821D821E821F821886E0
:10201000FE0180E011868F5F3196803131F0FACF7A
:1020200041614983CE010E94080EDF91CF911F913B
:1020300008950F931F93CF93DF93EC010AEC12E006
:10204000C8010E940C15882359F0898187FD08C0BA
:10205000C8010E940915682FCE010E94130FF0CF0E
:10206000DF91CF911F910F9108950F931F938C01D2
:10207000FC0173836283882777FD8095982F0E94E7
:1020800078192DEC3CEC4CE85FE30E94761A0E9434
:102090005B19F801758364831F910F910895882758
:1020A00077FD8095982F0E94781920E030E040EA73
:1020B00050E40E94761A20E030E048EC52E40E949E
:1020C000761A20E030E040E85AE30E94761A0E9437
:1020D0005B19DC01CB010895FC01678777278485B4
:1020E0000E9485170895FC016687772786810E94E4
:1020F000851708950F931F938C01FC0183850E941F
:102100006A17F801938B828BBC01C8010E944F10A3
:10211000F801918B808B1F910F910895CF93DF93DE
:10212000EC010E947A10288939898A819B812817BD
:10213000390714F4698106C08C819D8128173907FD
:102140001CF46881772702C060E070E08A850E94F5
:102150008517DF91CF910895FC01658787810E94E3
:1021600043180895CF92DF92EF92FF920F931F933F
:102170008C01C42EFC0181850E94431861E0F801A6
:1021800080850E944318DD24CC0CDD1CEE24D7FC96
:10219000E094FE2CC701B6010E94F11660E0F80140
:1021A00080850E9443181F910F91FF90EF90DF9060
:1021B000CF9008958F929F92AF92CF92EF920F930C
:1021C0004C01862FF40167834683C186A08622874F
:1021D0000487E38661E00E94D91761E0F4018681FB
:1021E0000E94D91761E0F40182850E94D91761E04D
:1021F000F40181850E94D91761E0F40180850E9475
:10220000D917C4010E947A1060E0C4010E947310C3
:1022100061E0C4010E94AC10F401138212821582A5
:102220001482108211820F91EF90CF90AF909F9007
:102230008F9008958F929F92AF92CF92EF920F93CB
:102240004C01862FF40167834683C186A0862287CE
:102250000487E38661E00E94D91761E0F40186817A
:102260000E94D91761E0F40182850E94D91761E0CC
:10227000F40181850E94D91761E0F40180850E94F4
:10228000D917C4010E947A1060E0C4010E94731043
:1022900061E0C4010E94AC10F40113821282158225
:1022A0001482108211820F91EF90CF90AF909F9087
:1022B0008F900895EF92FF920F931F93AA2797FD97
:1022C000A095BA2FBC01CD010E94781923E333E910
:1022D00048E853E40E948F189B01AC0160E070E075
:1022E00080E89FE30E94D11822E43DEE4FE65BE3D5
:1022F0000E948E1820E030E849E054E40E94761AEB
:102300000E94171920E038E247E955E40E94761A46
:102310007B018C01609103017727882777FD8095E9
:10232000982F0E94781920E030E040EA50E40E94A3
:10233000761A20E030E040E05DE30E94761A20E06B
:1023400030E040EA5FE30E948F1820E030E040EA8E
:1023500050EC0E94D11820E030E040E85FE30E949A
:102360008F180E941D1A2CE933E549E456EB0E94B0
:10237000761A9B01AC01C801B7010E94761A7B0155
:102380008C012091040133272F5F3F4F61E070E003
:1023900002C0660F771F2A95E2F7882777FD8095A0
:1023A000982F0E94781920E030E040E850E40E9425
:1023B000761A9B01AC0160E074E284E79AE40E9423
:1023C000D1189B01AC01C801B7010E94761A0E9486
:1023D0005B199B01161617061CF021E030E005C0C2
:1023E0006F3F710514F02FEF30E0C9011F910F917D
:1023F000FF90EF900895EF92FF920F931F93AA27FB
:1024000097FDA095BA2FBC01CD010E9478197B01E0
:102410008C012091040133272F5F3F4F61E070E072
:1024200002C0660F771F2A95E2F7882777FD80950F
:10243000982F0E94781920E030E040E850E40E9494
:10244000761A9B01AC0160E074E284E79AE40E9492
:10245000D1189B01AC01C801B7010E94D1187B01C2
:102460008C01609103017727882777FD8095982F4D
:102470000E94781920E030E040EA50E40E94761A89
:1024800020E030E040E05DE30E94761A20E030E09A
:1024900040EA5FE30E948F1820E030E040EA50EC11
:1024A0000E94D11820E030E040E85FE30E948F18DE
:1024B0000E941D1A2CE933E549E456EB0E94761A76
:1024C0009B01AC01C801B7010E94D11820E038E29D
:1024D00047E955E40E94D1180E941D1A20E030E817
:1024E00049E054E40E94D11822E43DEE4FE65BE35C
:1024F0000E948F189B01AC0160E070E080E89FE3D0
:102500000E94D11823E333E948E853E40E948E186F
:102510000E945B19DC01CB011F910F91FF90EF909E
:102520000895EF92FF920F931F937C018B010E94FD
:10253000330E012F110F110B602FC7010E94330EB4
:102540001F910F91FF90EF90089568E083E191E073
:102550000E941A0E87E08093030184E080930401B7
:102560001092480110924701089580911C01893012
:1025700009F487C08A30A0F4833009F451C0843054
:1025800028F4813099F1823098F51EC0863009F424
:1025900069C0883009F468C0843009F0D2C04EC0E8
:1025A0008D30B1F18E3030F48B3009F4A5C08C3011
:1025B00058F580C0853309F4ABC08F3F09F4ADC036
:1025C000843309F0BEC09FC048E060E083E191E041
:1025D0000E94260E60E083E191E00E94330E61E0EC
:1025E00083E191E00E94330E64E0A3C061E001C08A
:1025F00060E089E491E00E94AC1060911D0189E4E3
:1026000091E00E9473109DC040911D0161E003C0E4
:1026100040911D0160E089E491E00E94B21091C0F8
:1026200080911E019927982F882720911D01820FE4
:10263000911D909348018093470183C048E060E07A
:1026400083E191E00E94260E64E083E191E00E9424
:10265000330E609147017091480183E191E00E943F
:10266000AF036BC060E0CBCF48E060E083E191E076
:102670000E94260E68E083E191E00E94330E60E044
:1026800058C080E4809349018FEF80934A01809184
:102690001F0199270E94FB1190934C0180934B01DD
:1026A0008091200199270E94FB1190934E01809305
:1026B0004D0147C064E670E080E090E00E94F116B2
:1026C00048E060E083E191E00E94260E6AE083E149
:1026D00091E00E94330E89E491E00E947A100E94FA
:1026E0005A11682F83E191E00E94330E89E491E052
:1026F0000E947A10682F1DC060911D0189E491E04D
:102700000E946C101EC080911D018093030119C0AE
:1027100080911D018093040114C048E060E083E1D2
:1027200091E00E94260E6FEF83E191E00E94330E4C
:1027300061E083E191E00E94330E83E191E00E9429
:10274000CC0E83E191E00E943F0E08958F92AF92EC
:10275000CF92EF920F93019709F045C06F5F7F4FC3
:1027600009F041C050E1A52E4FE0C42EEE2405E053
:1027700026E04BE06CE089E491E00E94DA109FE0F3
:102780009F9380E18F9381E18F9383E18F9382E127
:102790008F9320E931E03F932F938AE78F939F93A4
:1027A0008DE08F9388E08F938AE08F9387E08F93FB
:1027B0003F932F9339E7832E2FE0A22E99E0C92E65
:1027C00084E0E82E02E023E040E951E068E78DE58F
:1027D00091E00E9443038DB79EB70F960FB6F89411
:1027E0009EBF0FBE8DBF0F91EF90CF90AF908F9097
:1027F00008956FEF7FEF81E090E00E94A6130895A7
:102800000E94B50489E491E00E948E108091140129
:1028100087FF11C080911801883019F40E94B51209
:1028200005C08250833010F40E94F50783E191E0E7
:102830000E943F0E089583E191E00E9419100895CF
:102840008AEC92E00E941015089564E68AEC92E00A
:102850000E94691408950F931F9303E111E040E073
:102860005BE460E070E0C8010E9420140E94B006A2
:102870000E94A512C8010E94251465E071E08AEC4F
:1028800092E00E94FB141F910F910895CFEFD4E0C6
:10289000DEBFCDBF0E9420170E942B140E9400149F
:1028A000FDCF08950895CB01BA013327442755275A
:1028B0000E94D71508952AE00E9453140895AB0191
:1028C000662777270E945B140895862F0E94CF15F4
:1028D0000895862F0E94CF1508950F931F938C01A2
:1028E0006DE00E9469146AE0C8010E9469141F919A
:1028F0000F9108950F931F938C010E945B14C801E0
:102900000E946D141F910F9108950F931F938C01D6
:102910000E946514C8010E946D141F910F910895C3
:102920000F931F938C010E946914C8010E946D14BB
:102930001F910F910895EF92FF920F931F93CF93E2
:10294000DF93EC017A018B0177FF0BC06DE20E94EF
:10295000691410950095F094E094E11CF11C011DA0
:10296000111D2AE0B801A701CE010E945314DF9186
:10297000CF911F910F91FF90EF9008950F931F93A8
:102980008C010E949B14C8010E946D141F910F912D
:1029900008952115310521F4642F0E9469140895CA
:1029A0002A30310519F40E949B1408950E94531493
:1029B00008950F931F938C010E94C914C8010E94AF
:1029C0006D141F910F910895AB01662757FD609517
:1029D000762F0E949B1408950F931F938C010E94E1
:1029E000E414C8010E946D141F910F910895CB014A
:1029F0000E94A71608950F931F938C010E94F7144D
:102A0000C8010E946D141F910F9108950E948815AE
:102A100008950E94691508950E94581599270895F0
:102A2000CB01BA010E941715089508950895EF92F9
:102A3000FF920F931F937B018C0122E030E040E076
:102A400050E00E94211B205C3D4B404F5F4FCA016C
:102A5000B901A80197010E94211B2150304040403C
:102A60005040BB2757FDBA95A52F942F832F2F5F7A
:102A70003F4F4F4F5F4F8093C50021502093C400BC
:102A8000E1ECF0E0808180618083808188608083D8
:102A90008081806880831F910F91FF90EF9008954F
:102AA000982F8091C00085FFFCCF9093C6000895B9
:102AB0008091CB029091CC0280589F4F2091CD0203
:102AC0003091CE02821B930B60E870E00E94EC1AFA
:102AD00008954091CD025091CE028091CB02909109
:102AE000CC028417950719F48FEF9FEF0895FA0130
:102AF000E153FD4F2081CA01019660E870E00E9419
:102B0000EC1A9093CE028093CD02822F99270895DC
:102B10008091CD029091CE029093CC028093CB0213
:102B200008951F920F920FB60F9211242F933F9387
:102B30004F935F936F937F938F939F93AF93BF93C5
:102B4000EF93FF934091C600E091CB02F091CC024D
:102B5000CF01019660E870E00E94EC1A9C01809120
:102B6000CD029091CE022817390739F0E153FD4F7D
:102B700040833093CC022093CB02FF91EF91BF9121
:102B8000AF919F918F917F916F915F914F913F9105
:102B90002F910F900FBE0F901F9018950895982FAA
:102BA0008091C00085FFFCCF9093C60008952F92BE
:102BB0003F924F925F926F927F928F929F92AF92CD
:102BC000BF92CF92DF92EF92FF920F931F93CF931A
:102BD000DF93CDB7DEB7A0970FB6F894DEBF0FBE78
:102BE000CDBF6B017C0129013A0161157105810599
:102BF000910541F48091C00085FFFCCF80E3809374
:102C0000C6004BC08824992454011E010894211C3D
:102C1000311C8101080D191DC701B601A3019201E4
:102C20000E94FF1AF80160830894811C911CA11C6A
:102C3000B11CC701B601A30192010E94FF1A6901EC
:102C40007A01211531054105510519F708948108CC
:102C50009108A108B108F101E80DF91D0894811C43
:102C6000911CA11CB11C14C0089481089108A108F2
:102C7000B10880818A3018F4982F905D02C0982F97
:102C8000995C8091C00085FFFCCF9093C60031977E
:102C900081149104A104B10439F7A0960FB6F894F9
:102CA000DEBF0FBECDBFDF91CF911F910F91FF907F
:102CB000EF90DF90CF90BF90AF909F908F907F90DC
:102CC0006F905F904F903F902F90089520E130E0FB
:102CD00040E050E00E94D715089528E030E040E041
:102CE00050E00E94D715089522E030E040E050E027
:102CF0000E94D71508958091C00085FFFCCF8AE01F
:102D00008093C6000895EF92FF920F931F937B016B
:102D10008C0197FF0FC08091C00085FFFCCF8DE232
:102D20008093C60010950095F094E094E11CF11C8E
:102D3000011D111D2AE030E040E050E0C801B7015C
:102D40000E94D7151F910F91FF90EF900895FC01FD
:102D500007C08091C00085FFFCCF31969093C600DC
:102D600090819923B1F708951F920F920FB60F9299
:102D700011248F939F93AF93BF9380914F039091B2
:102D80005003A0915103B09152030196A11DB11DB2
:102D900080934F0390935003A0935103B093520339
:102DA000BF91AF919F918F910F900FBE0F901F9089
:102DB000189560914F037091500380915103909149
:102DC000520327E0660F771F881F991F2A95D1F7B6
:102DD0002DE730E040E050E00E94FF1ACA01B9013F
:102DE0000895AF92BF92CF92DF92EF92FF920F932E
:102DF0001F935B016C010E94D9167B018C010E941C
:102E0000D9166E197F09800B910B6A157B058C050D
:102E10009D05A8F31F910F91FF90EF90DF90CF9049
:102E2000BF90AF900895019751F0880F991F880FB8
:102E3000991F02972FB7F8940197F1F72FBF0895C4
:102E4000789410924F0310925003109251031092F5
:102E5000520384B5826084BD84B5816084BD85B52C
:102E6000826085BD85B5816085BDEEE6F0E080813C
:102E700081608083E1E8F0E08081826080838081EE
:102E800081608083E0E8F0E0808181608083E1EB15
:102E9000F0E0808184608083E0EBF0E080818160FD
:102EA0008083ECE7F0E080818F778083808180648D
:102EB0008083EAE7F0E080818460808380818260A3
:102EC000808380818160808380818068808310928C
:102ED000C100089590917C008F70907F892B809322
:102EE0007C0080917A00806480937A0080917A00DF
:102EF00086FDFCCF20917800809179009927982F4A
:102F000088273327822B932B08951F93CF93DF932A
:102F1000182FEB0161E00E94D917E12FFF27E15143
:102F2000FF4F8491833051F48091800080688093BA
:102F30008000D0938900C093880037C0843051F45A
:102F400080918000806280938000D0938B00C0933A
:102F50008A002BC0813029F484B5806884BDC7BD48
:102F600024C0823029F484B5806284BDC8BD1DC0F0
:102F7000863041F48091B00080688093B000C093A7
:102F8000B30013C0873041F48091B0008062809319
:102F9000B000C093B40009C0C038D10514F460E09B
:102FA00001C061E0812F0E944318DF91CF911F91F2
:102FB0000895282F3327C90185529F4FFC01949112
:102FC00029533F4FF9018491882381F0E82FFF278F
:102FD000E854FF4FE491FF27662329F48081909500
:102FE0008923808308958081892B80830895482FC9
:102FF0005527CA0181519F4FFC012491CA01855276
:103000009F4FFC01949149535F4FFA013491332350
:1030100019F480E090E00895222331F1233021F467
:10302000809180008F7705C0243031F4809180003A
:103030008F7D8093800018C0213019F484B58F777C
:1030400004C0223021F484B58F7D84BD0DC02630AC
:1030500021F48091B0008F7705C0273029F480914A
:10306000B0008F7D8093B000E32FFF27EE53FF4F1A
:10307000E491FF27808120E030E0892311F021E0F6
:1030800030E0C9010895482F5527CA0181519F4F4B
:10309000FC012491CA0185529F4FFC019491495330
:1030A0005F4FFA0134913323C1F1222331F12330F0
:1030B00021F4809180008F7705C0243031F4809115
:1030C00080008F7D8093800018C0213019F484B572
:1030D0008F7704C0223021F484B58F7D84BD0DC06C
:1030E000263021F48091B0008F7705C0273029F475
:1030F0008091B0008F7D8093B000E32FFF27E354D1
:10310000FF4FE491FF27662329F48081909589235E
:10311000808308958081892B808308955058192ECB
:103120004CD101D0FCC0BA1762077307840795071A
:10313000B1F188F40EF410940B2EBA2FA02D062EA8
:10314000622F202D072E732F302D082E842F402D17
:10315000092E952F502DFF275523B9F0591B49F003
:10316000573E98F0469537952795A795F04053958B
:10317000C9F776F0BA0F621F731F841F30F487956A
:1031800077956795B795F040939517FA0F2E0895A8
:10319000BF1BBB27BA0B620B730B840BF6CFDEF69B
:1031A00038C10BD101D0BBC0552359F0992369F028
:1031B0009F575F57951B33F442F4903811F49158A0
:1031C00005C0C5C091589F3F09F423C1BB271124F6
:1031D00062177307840730F4660F771F881FBB1FC1
:1031E000915098F311D00F920FD00F920DD0A0E80C
:1031F0002617370748071B0609F0A048BA2F602D8D
:103200007F918F9100240895A0E80024621773072E
:103210008407B10528F0621B730B840BB1090A2ADD
:10322000660F771F881FBB1FA69581F70895092E8B
:1032300099234AF052E441EB32E76831730784077F
:10324000950758F084C09F7752E44EEA3CEA603517
:1032500073078407950708F0D9C00F925FE348EB26
:103260003AEA2BE343D1FF92EF92DF92CF9250E004
:103270004CE00CD1E8E6F0E06DD05F2D4E2D3D2DF9
:103280002C2DCF90DF90EF90FF90FEE94595441FE5
:10329000551FF51B5527406804C04695379527955F
:1032A0005795FA95D2F7452F550F550BB4D00F907F
:1032B00007FC28C0089597FB8CD09F3738F0FEE9B3
:1032C000F91B982F872F762F6B2F05C09FC09695DF
:1032D000879577956795F150D0F73EF49095809556
:1032E000709561957F4F8F4F9F4F0895E89403C06D
:1032F00097FB0EF4F3DFB62F672F782F892F9EE907
:1033000000240DC09B01AC019FE380E8772766276E
:103310000C94D1189A95BB0F661F771F881F112434
:103320009923A1F08823B2F79F3F59F0BB0F48F4CF
:1033300021F4002011F460FF04C06F5F7F4F8F4FB6
:103340009F4F881F9795879597F908955FC09FEFC6
:1033500080EC0895FF92EF92DF92CF92BF926B01C3
:103360007C01B59016D0B590BB2069F09F938F93E8
:103370007F936F93B601C7010CD02F913F914F916E
:103380005F910E94D118BF90CF90DF90EF90FF9097
:103390000895F4D002C09601A701EF93FF930E9415
:1033A000761AFF91EF91EAD0EF93FF930E948F1866
:1033B000FF91EF91BA9479F70895052E092607FA3F
:1033C000440F551F5F3F79F0AA27A51708F051E079
:1033D0004795880F991F9F3F31F0BB27B91708F019
:1033E00091E0879508959F919F911124B0CF97FB0D
:1033F000880F991F9F3F31F0BB27B91708F091E064
:10340000879508959F919F911124A1CF66277727D3
:10341000882799270895EBDF992359F0AA27940F5D
:10342000A51F43F032F04FEF50E09417A50714F4B6
:1034300076CFECCF0EF0ACC0A6C097FD88CFD7DF1B
:10344000992309F484CFFF92EF92DF92CF92C92E95
:103450009FE38F77E6E8F0E07DDF0C2CC92ED82EB5
:10346000E72EF62E602D6E57770B872F972F40DFB4
:103470005FE341E332E728E139D05C2D4D2D3E2D4D
:103480002F2DCF90DF90EF90FF9049CEB0DFCF93FC
:10349000DF93D52FC42F552744273327222799237D
:1034A000D9F09F37C8F0F92F3ADF592F482F372F1F
:1034B000262FF63968F4FFDE1BDFC030CD0721F080
:1034C00069937993899399939058DF91CF9127CEFF
:1034D0009927882777276627C030CD0721F02993C1
:1034E000399349935993DF91CF9119CF66DF01D07A
:1034F00016CF992339F0552329F09F575F57950F21
:1035000013F49AF186CF91589F3FE1F3629FA12D6A
:103510000F92BB27639FA00DB11DEE27729FA00DD8
:10352000B11DEE1FAF93AA27649FB00DE11D739FDD
:10353000B00DE11DAA1F6627829FB00DE11DA61FD9
:103540005527749FE00DA11D551F839FE00DA11D00
:10355000561F849FA00D511D852F7A2F6E2F1F900F
:103560000F9088231AF4939539F4F1CE000C111CB6
:10357000BB1F661F771F881F01280895559145912D
:103580003591259108959FEF80E870E060E00895FF
:103590009FE780E870E060E00895629FD001739F2C
:1035A000F001829FE00DF11D649FE00DF11D929FDF
:1035B000F00D839FF00D749FF00D659FF00D99271E
:1035C000729FB00DE11DF91F639FB00DE11DF91F42
:1035D000BD01CF011124089597FB092E07260AD0BB
:1035E00077FD04D049D006D000201AF4709561957B
:1035F0007F4F0895F6F7909581959F4F0895A1E22A
:103600001A2EAA1BBB1BFD010DC0AA1FBB1FEE1F5C
:10361000FF1FA217B307E407F50720F0A21BB30BA7
:10362000E40BF50B661F771F881F991F1A9469F723
:1036300060957095809590959B01AC01BD01CF017F
:10364000089597FB092E05260ED057FD04D0D7DF2D
:103650000AD0001C38F450954095309521953F4F85
:103660004F4F5F4F0895F6F790958095709561954F
:103670007F4F8F4F9F4F0895AA1BBB1B51E107C07F
:10368000AA1FBB1FA617B70710F0A61BB70B881FF2
:10369000991F5A95A9F780959095BC01CD01089581
:0E36A000EE0FFF1F0590F491E02D0994FFCF6F
:0C36AE00FFFFFF0704424547494E0000A3
:00000001FF
