:020000040000FA
:0600000000008A117D2DB5
:08000800F200030E8301F10078
:100010000A088A01F000040883160313D6008A1523
:1000200000208A11831203130C1C1C288A115B22E6
:100030008A11831203130C108316031356088400CD
:1000400070088A008301710E8300F20E720E09009F
:10005000831203135F0883120313D1000319792855
:100060005108013A0319DC285108023A0319E8281B
:100070005108033A0319F4285108043A03190729CF
:100080005108053A031924295108063A03194D2944
:100090005108073A031952295108083A03195929F6
:1000A0005108093A0319602951080A3A03196C29C1
:1000B00051080B3A0319892951080C3A0319EB2905
:1000C00051080D3A0319ED2951080E3A0319EF2989
:1000D00051080F3A0319F7295108103A03190E2A4B
:1000E0005108FE3A03198C285108FF3A0319CD280C
:1000F000192A8A15CD208A1100308A152F218A11DC
:1001000001308A152F218A1100308A152F218A117A
:100110008A1539208A11192A8A15CD208A11FE30B4
:100120008A152F218A118312031360088312031387
:10013000D1000319A028FF308A152F218A11C12868
:1001400083120313600883120313D1005108031DA7
:10015000BD2883120313610883120313D1000830F2
:100160005102031CB828FF308A152F218A11C1289B
:1001700000308A152F218A11C12800308A152F21BD
:100180008A1100308A152F218A1108308A152F21F3
:100190008A118A1539208A11192A8A15CD208A11C7
:1001A000FF308A152F218A1100308A152F218A11DC
:1001B0008A1539208A11192A013083160313D000B9
:1001C00083120313600883120313D1007F24192ABA
:1001D000023083160313D0008312031360088312C6
:1001E0000313D1007F24192A83120313600883129A
:1001F0000313D10083120313D30083120313610886
:1002000083120313D10083120313D400192A8A1511
:10021000CD208A1104308A152F218A1183120313ED
:10022000530883120313D1008A152F218A118312D8
:100230000313540883120313D1008A152F218A1146
:100240008A1539208A11192A83120313610883122F
:100250000313D10083120313D50083120313620822
:1002600083120313D10083120313D60083160313E2
:100270005308013A031D4129033083160313D000AC
:100280004529043083160313D0008312031360083A
:1002900083120313D1007F24192A572583160313D1
:1002A000D001192A83120313600883160313D200A6
:1002B000192A83120313600883160313D300192A23
:1002C000053083160313D0008312031360088312D2
:1002D0000313D1007F24192A8A15CD208A110A30F0
:1002E0008A152F218A1183120313570883120313CF
:1002F000D1008A152F218A11831203135808831203
:100300000313D1008A152F218A118A1539208A11E9
:10031000192A83120313610883120313D100831275
:100320000313D50083120313620883120313D10051
:1003300083120313D600831203136308831203137B
:10034000D10083120313DB008312031364088312AA
:100350000313D10083120313DC0083120313D901AA
:10036000DA0183120313550883120313D100831299
:100370000313530883120313510283120313DD0086
:1003800083120313560883120313DE008312031330
:10039000540883120313D200031C520A0319D329F1
:1003A00083120313DE02031483120313DE1F0310F0
:1003B000031CDF29DD09DE09DD0A0319DE0A073027
:1003C00083160313D00083120313600883120313F0
:1003D000D1007F24192ACD24192A9724192A83129F
:1003E0000313600883120313D1001C22192A8A15F3
:1003F000CD208A110F308A152F218A118312031301
:1004000005088A152F218A118312031306088A15FD
:100410002F218A118A1539208A11192A083083164A
:100420000313D00083120313600883120313D10057
:100430007F2483160313080083120313D0000310D4
:10044000500C8312031395000310950C1030831683
:1004500003139200033083120313D005500EF039BA
:10046000C6000C30460483120313970008000430C2
:1004700083160313530203185A2A02308A004630A7
:10048000530703188A0A8312031382004A2A4B2A4D
:10049000572A592A5A2A033083160313D000831689
:1004A0000313D301043083160313D0005A2ACD243A
:1004B0005A2A972408008316031350088312031343
:1004C000CC0009304C020318992B02308A006E30A0
:1004D0004C0703188A0A831203138200772A812AA1
:1004E000832A672B852A082B172B682B6A2B8312EC
:1004F0000313101083160313D1018A1509248A11DE
:10050000992BCD24992B9724992B831203135308ED
:1005100083120313CC0083120313550883120313B1
:10052000CE0083120313540883120313CD00803EC0
:10053000D00083120313560883120313CF00803EAA
:100540005002031DA52A4E084C020318A92ACD24E7
:10055000D32A83120313530883120313CC0083128C
:100560000313550883120313CE0083120313560896
:1005700083120313CF00803ED0008312031354086C
:1005800083120313CD00803E5002031DC92A4C087C
:100590004E020318CD2A9724D32A8A1509248A11DA
:1005A00083160313D0010030831603135004031D78
:1005B000992B831603135208FF3A0319992B5208FB
:1005C0008A15FA208A1183120313CC004C080319F0
:1005D000032B05308A152D218A118312031353082A
:1005E00083120313CC008A152D218A118312031361
:1005F000540883120313CC008A152D218A118A1501
:100600005B208A11992B043083160313D000992B99
:1006100083120313061C152B83120313D301D40179
:10062000063083160313D000992B9724992B83123D
:100630000313851E312B83120313530883120313F4
:10064000CC0083120313D7008312031354088312C0
:100650000313CC0083120313D80083160313D001B5
:10066000322BCD240030831603135004031D992B25
:10067000831603135208FF3A0319992B52088A155F
:10068000FA208A1183120313CC004C080319622B41
:1006900009308A152D218A118312031353088312FE
:1006A0000313CC008A152D218A11831203135408D9
:1006B00083120313CC008A152D218A118A155B2021
:1006C0008A11992B063083160313D000992B992B8E
:1006D000A023992B83120313061C762B831203137A
:1006E000D301D40183160313D001772B9724003054
:1006F000831603135004031D992B8316031352080A
:10070000FF3A0319992B52088A15FA208A1183128D
:100710000313CC004C080319952B10308A152D219A
:100720008A118A155B208A11992B083083160313CE
:10073000D0008316031351087F2483160313080087
:1007400083120313530883120313C8008312031385
:10075000540883120313C90083120313550883122C
:100760000313CA0083120313560883120313CB002A
:100770004A084806031DC42B4B084906031DC42B19
:1007800083160313D001E92B83120313530883123A
:100790000313C80083120313550883120313CA00FE
:1007A00083120313540883120313C900803ECC0044
:1007B00083120313560883120313CB00803E4C02AE
:1007C000031DE42B4A0848020318E82BCD24E92B2B
:1007D00097240030831603135004031D1E2C831628
:1007E00003135208FF3A03191E2C52088A15FA20E7
:1007F0008A1183120313C80048080319192C0B30FF
:100800008A152D218A1183120313530883120313AF
:10081000C8008A152D218A118312031354088312EC
:100820000313C8008A152D218A118A155B208A11AD
:100830006A2C073083160313D0006A2C003083160D
:100840000313500403196A2C831203135B088312E9
:100850000313C80083120313D907831203135C0820
:1008600083120313C9000318490A03193A2C83128F
:100870000313DA07031083120313590D83120313B2
:10088000C800831203135A0D83120313C900831285
:1008900003135E08803E83120313CC004908803E98
:1008A0004C02031D572C4808831203135D020318E2
:1008B0006A2C6B24831203135D0883120313D9027D
:1008C000831203135E08031C5E0A03196A2C831249
:1008D0000313DA020800831203138510831603132F
:1008E0008510FF3083120313C70083120313C70B55
:1008F000752C8316031385148316031308008316BF
:100900000313D10051080319912C83120313101003
:10091000831603135108831203138F008E011014E2
:10092000942C8312031310108316031308008A15E6
:100930000D248A1183120313061CA32C572583163A
:100940000313D001CA2C8312031353088312031319
:10095000C50083120313540883120313C600FF302B
:10096000C507031CC603450883120313D300831273
:100970000313460883120313D400033083160313B2
:100980004F0783120313C500033045058316031375
:10099000CF0001258316031308008A150D248A1140
:1009A00083120313851ED92C572583160313D001F8
:1009B000FE2C83120313530883120313C500831202
:1009C0000313540883120313C600C50A0319C60A89
:1009D000450883120313D3008312031346088312BE
:1009E0000313D400831603134F0A83120313C500A5
:1009F0000330450583160313CF0001258316031327
:100A000008000310831603134F0D83120313C40051
:100A1000083044020318542D05308A00153044076D
:100A200003188A0A8312031382004E2D472D402D8E
:100A3000392D322D2B2D242D1D2D831203138616B7
:100A4000061205150510542D83120313861606127F
:100A500005110510542D8312031386160612051175
:100A60000514542D83120313861206120511051462
:100A7000542D831203138612061605110514542DE6
:100A8000831203138612061605110510542D8312C6
:100A900003138612061605150510542D8312031331
:100AA0008612061205150510831603130800CF30B1
:100AB000831203138605FA30850583160313080095
:100AC00083160313D10183160313D0018316031376
:100AD000CF0183160313D301FF3083160313D20013
:100AE00083120313D301D40183120313D501D6015A
:100AF00083120313D701D8010800C930FE00063065
:100B0000FF0080308A110000A8268A110000831699
:100B10000313C1007F08C000CB30C2000630C30001
:100B2000831603134008C4004108C500FF30C00706
:100B3000031CC1034408450403190D2E0430420769
:100B4000C400C501C50D4308C5074408FE0045089B
:100B5000FF0080308A110000A8268A110000831649
:100B60000313C7007F08C6004208FE004308FF00C9
:100B700080308A110000A8268A1100008316031312
:100B8000C900C5007F08C800C40002304207C40085
:100B9000C501C50D4308C5074408FE004508FF0010
:100BA00080308A110000A8268A11000083160313E2
:100BB000C500CB007F08C400CA0083160313460893
:100BC000CA004708CB00FF30C607031CC7034A080A
:100BD0004B040319062E4808FE004908FF00803028
:100BE0008A11000095268A11000083160313CA009B
:100BF000440884008313451883174A088000C80AF4
:100C00000319C90AC40A0319C50ADD2D0630831663
:100C10000313C2070318C30A902D8A110000112E76
:100C2000080083160313CC0150268A1160258A110F
:100C30008A15E6238A11831203138B1300308A1559
:100C400064218A11831203138B17851C2B2E01300C
:100C500083160313CC008A15B1208A11831603135F
:100C6000CD004D0803193A2E8A1128208A118A15C1
:100C700023218A110030831603134C0403194B2ED1
:100C80008312031385184B2E83120313851C442EE5
:100C90008A1137228A118A11FB268A112B2E08000D
:100CA0005F30831603138100FF30831203139F000C
:100CB0002A30831603138500033086008C018312CB
:100CC00003138B018C010C3083160313990004303D
:100CD0009800803083120313980001308600831639
:100CE00003138C1683120313181683160313981616
:100CF000831203130B178B178601850183160313C9
:100D00000C108312031391010430950010308316E8
:100D1000031392000C3083120313970004309200E7
:100D20009001831603130C140800003A03199C2E3B
:100D3000803A0319A32E00347E08840083137F18A1
:100D40008317000808007F088A007E0882000800D8
:100D5000003A0319B02E803A0319BA2EFF0100346D
:100D60007E08840083137F1883170008FF00840A1D
:100D7000000808008A110000A326FD00FE0FFF03F3
:100D8000FF0A8A110000A326FC007D08FF007C08F2
:100D900008000834003408340734CE3400340134F9
:100DA000003409340734CF340034013400340A34B9
:100DB0000734D0340034013400340B340734D134D8
:100DC0000034013400340C340734D234003401349C
:100DD00000340D340734D3340034013400340E347D
:100DE0000734D5340034013400340F340734D73499
:100DF00000340134003464000800000000000000EA
:100E000000000000000000000000000000000800DA
:100E10000234003400340034FF3400343034003401
:10100000831203130C1E3128831603130C1E312880
:10101000831203133A08831203133906031D16289B
:1010200083160313981C31280C12312883120313E2
:101030003908A03E83120313B30000300318013EA9
:10104000B400330884008313341883170008831214
:101050000313990083120313B90A103039020318DD
:10106000B901831203138C1E3628972183160313AC
:101070000800831203138B1383160313D41C562802
:10108000831203138B178A11FD268A158A11FD26F8
:101090008A158A11FD268A158A11FD268A158A115C
:1010A000FD268A15831203138B133C285D208312BF
:1010B00003138B1708005D20080083160313541DCB
:1010C000B0285430642183120313BB01513096239E
:1010D00083120313B00064213030831203134204DF
:1010E00083120313B000962383120313B00064210C
:1010F000831203134308962383120313B000642161
:10110000831603134E08962383120313B000642141
:1011100083120313B00183120313420883120313D3
:1011200030020318A9283008B03EB100003003187F
:10113000013EB2003108840083133218831700087F
:10114000962383120313B100642183120313B00AA0
:101150008B28831203133B08642183160313541155
:101160000800831203138B13803083160313540576
:1011700083120313AF00831203133A08831203137D
:1011800039060319C62883120313AF018312031310
:101190008B17831203132F080800831203134108CF
:1011A000D220080083120313AE00831203138B13A3
:1011B00083160313541DF228831203138B178A110D
:1011C000FD268A158A11FD268A158A11FD268A15A3
:1011D0008A11FD268A158A11FD268A1583120313AA
:1011E0008B13D828831203132E08132183120313A1
:1011F0008B17080083120313AD00831603135419D1
:101200000B29D4180B29831203133A0883120313F2
:10121000390603190D2900301229831203132D08F2
:1012200013210130080083120313AC00831603134B
:101230005415831203132C0883120313C300831263
:101240000313C2010800831203138B1383160313C5
:10125000D413831203138B1708003D210800831257
:101260000313AB00831203138B13831203132B0896
:101270003D21831203138B17080083120313A80068
:1012800083160313541D6129103083120313420285
:1012900003186129420883120313A9008312031360
:1012A000C20A831203132908B03EA90000300318B4
:1012B000013EAA002908840083132A1883172808EE
:1012C000800083160313080083120313A100831206
:1012D00003133A0A83120313A500103025020318E2
:1012E000A50183120313390883120313250603197A
:1012F0009429831203133A08A03E83120313A60015
:1013000000300318013EA700260884008313271825
:10131000831721088000250883120313BA0083165F
:1013200003130C1A94290C16831603130800831256
:1013300003131A0883120313A200831203139818CD
:101340001812181683160313541CA8297D237C2B0E
:1013500083160313550883120313A30030302302AE
:10136000031C772B3B3023020318772BD030A307C5
:1013700009308A00C130230703188A0A8312031335
:101380008200CC29DA29092A332A632AB32AD92AE6
:10139000302B482B532B612B831203132208543A12
:1013A000031D7C2B313083160313D50083160313E2
:1013B000D4117C2B83120313220883120313BC0065
:1013C000FC30831203132205A300503A0319EE29BF
:1013D000831603135414D4167D237C2B03308312FD
:1013E00003132205A300013A031DFA2983160313F0
:1013F0005417FD2983160313541383120313BB01DF
:101400008312031322089623323083160313D50068
:101410007C2B83120313220883120313BD00F030C8
:10142000831203132205A300303A03191D2A8316E1
:1014300003135414D4167D237C2B0F308312031313
:10144000220583120313BE0011303E02031C2A2A18
:101450001030BE0083120313220896233330831604
:101460000313D5007C2B831603134E08831203133A
:10147000220603195A2A54308A1564218A158312C8
:1014800003133C088A1564218A15831203133D084F
:101490008A1564218A158312031322088A15642190
:1014A0008A15393083160313D5008316031354139A
:1014B000D4147C2B83120313220896233430831612
:1014C0000313D5007C2B83160313D41FA12A543099
:1014D0008A1564218A1583120313BB0153309623A6
:1014E00083120313A3008A1564218A1530309623D2
:1014F00083120313A3008A1564218A158312031330
:101500003F08962383120313A3008A1564218A15CA
:10151000831603134E08962383120313A3008A1520
:1015200064218A15831203133B088A1564218A15E6
:10153000831603135413D415303083160313D500C8
:101540007C2B83120313220883120313BF00831220
:101550000313C00183120313220896233530831628
:101560000313D5007C2B8312031340085F3E8312C4
:101570000313A30000300318013EA40023088400D5
:101580008313241883172208800083120313C00AD0
:101590008312031322089623831203133E08831237
:1015A00003134006031D7C2B363083160313D5002E
:1015B0007C2B831203133B08831203132206031DA3
:1015C000ED2A5230A30083160313D417831203139A
:1015D0003F0883120313C100F12A5330831203130F
:1015E000A30083160313541F2B2B54308A15642138
:1015F0008A1583120313BB01831203132308962356
:1016000083120313A3008A1564218A1530309623B0
:1016100083120313A3008A1564218A15831203130E
:101620003F08962383120313A3008A1564218A15A9
:10163000831603134E08962383120313A3008A15FF
:1016400064218A15831203133B088A1564218A15C5
:10165000831603135413303083160313D5007C2BE9
:101660008312031322088A1564218A150F3083120E
:101670000313220583120313BE0011303E02031C24
:10168000432B1030BE00383083160313D5007C2B5B
:101690008312031322088A1564218A1539308316B0
:1016A0000313D5007C2B8312031322088A156421AF
:1016B0008A1583120313BE0A3A3083160313D5002A
:1016C0007C2B8312031322088A1564218A150230A9
:1016D000831203133E02031C6F2BBE037C2B30309E
:1016E00083160313D50083160313D4107C2B8316A3
:1016F0000313541454167D23080083160313D419BE
:101700008D2B083083120313A00000308A1564214A
:101710008A1583120313A00B852B0830831603133D
:10172000D405303083160313D50008008312031349
:10173000A000831203133B0683120313A10083123C
:101740000313BB0183120313211CAA2B5E308312E7
:101750000313BB0683120313A11CB22BBC308312EC
:101760000313BB0683120313211DBA2B61308312AE
:101770000313BB0683120313A11DC22BC2308312B5
:101780000313BB0683120313211ECA2B9D30831241
:101790000313BB0683120313A11ED22B2330831223
:1017A0000313BB0683120313211FDA2B4630831267
:1017B0000313BB0683120313A11FE22B8C30831289
:1017C0000313BB068312031320080800303083166E
:1017D0000313D50083120313B90183120313BA0153
:1017E00083160313D40183120313BB018312031363
:1017F000B601323083120313B80083120313B7000B
:10180000080083120313B8007F0883120313B70084
:101810000800831203130512080083120313B50393
:101820003508031D2E2C831203133608013CB60025
:1018300036080319252C8312031305128312031390
:10184000370883120313B5002E2C831203130516D9
:0E18500083120313380883120313B500080037
:02400E00103F61
:00000001FF
