:020000040000FA
:0600000000008A15002833
:08000800F200030E8301F10078
:100010000A088A01F000040883160313D6008A1127
:100020002F208A11831203130B1C19288A110D2605
:100030008A11831203130C1C23288A1195268A1116
:10004000831203130C1083160313560884007008E0
:100050008A008301710E8300F20E720E0900831272
:1000600003130C1E6028831603130C1E60288312D2
:1000700003133A08831203133906031D4528831618
:100080000313981C60280C1260288312031339088C
:10009000543E83120313B30000300318013EB40032
:1000A0003308840083133418831700088312031362
:1000B000990083120313B90A103039020318B901E9
:1000C000831203138C1E6528C621831603130800B0
:1000D000831203138B1383160313D41C85288312F6
:1000E00003138B178A11DC278A118A11DC278A11E6
:1000F0008A11DC278A118A11DC278A118A11DC27F0
:100100008A11831203138B136B288C208312031321
:100110008B1708008C20080083160313541DDF285A
:100120005430932183120313BB015130C523831232
:100130000313B0009321303083120313420483125F
:100140000313B000C52383120313B000932183125D
:1001500003134308C52383120313B00093218316AE
:1001600003133F08C52383120313B00093218312A6
:100170000313B001831203134208831203133002E6
:100180000318D8283008A03EB10000300318013E03
:10019000B200310884008313321883170008C52386
:1001A00083120313B100932183120313B00ABA28F8
:1001B000831203133B089321831603135411080081
:1001C000831203138B138030831603135405831299
:1001D0000313AF00831203133A0883120313390683
:1001E0000319F52883120313AF01831203138B172E
:1001F000831203132F0808008312031341080121FF
:10020000080083120313AE00831203138B138316AB
:100210000313541D2129831203138B178A11DC2722
:100220008A118A11DC278A118A11DC278A118A1126
:10023000DC278A118A11DC278A11831203138B139E
:100240000729831203132E084221831203138B17ED
:10025000080083120313AD008316031354193A29BF
:10026000D4183A29831203133A0883120313390668
:1002700003193C2900304129831203132D08422120
:100280000130080083120313AC00831603135415C6
:10029000831203132C0883120313C3008312031366
:1002A000C2010800831203138B1383160313D413A4
:1002B000831203138B1708006C21080083120313A9
:1002C000AB00831203138B13831203132B086C21CF
:1002D000831203138B17080083120313A8008316DD
:1002E0000313541D90291030831203134202031884
:1002F0009029420883120313A90083120313C20A30
:10030000831203132908A03EA90000300318013E00
:10031000AA002908840083132A188317280880005C
:1003200083160313080083120313A100831203131F
:100330003A0A83120313A500103025020318A50101
:100340008312031339088312031325060319C329E3
:10035000831203133A08543E83120313A60000309D
:100360000318013EA700260884008313271883176B
:1003700021088000250883120313BA008316031393
:100380000C1AC3290C1683160313080083120313D7
:100390001A0883120313A200831203139818181269
:1003A000181683160313541CD729AC23AB2B8316C2
:1003B0000313550883120313A30030302302031CD8
:1003C000A62B3B3023020318A62BD030A307013005
:1003D0008A00F030230703188A0A8312031382006D
:1003E000FB29092A382A622A922AE22A082B5F2B43
:1003F000772B822B902B831203132208543A031D70
:10040000AB2B313083160313D50083160313D4119D
:10041000AB2B83120313220883120313BC00FC309E
:10042000831203132205A300503A03191D2A8316D1
:1004300003135414D416AC23AB2B033083120313D1
:100440002205A300013A031D292A8316031354171A
:100450002C2A83160313541383120313BB01831234
:1004600003132208C523323083160313D500AB2BA8
:1004700083120313220883120313BD00F03083128A
:1004800003132205A300303A03194C2A83160313E1
:100490005414D416AC23AB2B0F3083120313220554
:1004A00083120313BE0011303E02031C592A103080
:1004B000BE00831203132208C523333083160313AF
:1004C000D500AB2B831603133F08831203132206B8
:1004D0000319892A54308A1193218A118312031334
:1004E0003C088A1193218A11831203133D088A1153
:1004F00093218A118312031322088A1193218A11EE
:10050000393083160313D500831603135413D41400
:10051000AB2B831203132208C52334308316031335
:10052000D500AB2B83160313D41FD02A54308A1165
:1005300093218A1183120313BB015330C523831205
:100540000313A3008A1193218A113030C52383122B
:100550000313A3008A1193218A11831203133F0806
:10056000C52383120313A3008A1193218A118316D2
:1005700003133F08C52383120313A3008A11932199
:100580008A11831203133B088A1193218A1183165F
:1005900003135413D415303083160313D500AB2B3B
:1005A00083120313220883120313BF008312031361
:1005B000C001831203132208C523353083160313A9
:1005C000D500AB2B831203134008443E8312031360
:1005D000A30000300318013EA40023088400831305
:1005E000241883172208800083120313C00A831281
:1005F00003132208C523831203133E088312031337
:100600004006031DAB2B363083160313D500AB2BEE
:10061000831203133B08831203132206031D1C2BB2
:100620005230A30083160313D417831203133F0819
:1006300083120313C100202B533083120313A30032
:1006400083160313541F5A2B54308A1193218A1195
:1006500083120313BB01831203132308C5238312E0
:100660000313A3008A1193218A113030C52383120A
:100670000313A3008A1193218A11831203133F08E5
:10068000C52383120313A3008A1193218A118316B1
:1006900003133F08C52383120313A3008A11932178
:1006A0008A11831203133B088A1193218A1183163E
:1006B00003135413303083160313D500AB2B83126E
:1006C000031322088A1193218A110F308312031316
:1006D000220583120313BE0011303E02031C722B4D
:1006E0001030BE00383083160313D500AB2B8312B5
:1006F000031322088A1193218A11393083160313B8
:10070000D500AB2B8312031322088A1193218A117F
:1007100083120313BE0A3A3083160313D500AB2BA2
:100720008312031322088A1193218A110230831243
:1007300003133E02031C9E2BBE03AB2B30308316EB
:100740000313D50083160313D410AB2B83160313A6
:1007500054145416AC23080083160313D419BC2B6D
:10076000083083120313A00000308A1193218A11EC
:1007700083120313A00BB42B083083160313D40584
:10078000303083160313D500080083120313A00032
:10079000831203133B0683120313A1008312031376
:1007A000BB0183120313211CD92B5E308312031368
:1007B000BB0683120313A11CE12BBC30831203136D
:1007C000BB0683120313211DE92B6130831203132F
:1007D000BB0683120313A11DF12BC2308312031336
:1007E000BB0683120313211EF92B9D3083120313C2
:1007F000BB0683120313A11E012C233083120313A3
:10080000BB0683120313211F092C463083120313E6
:10081000BB0683120313A11F112C8C308312031308
:10082000BB0683120313200808003030831603131D
:10083000D50083120313B90183120313BA0183167F
:100840000313D40183120313BB0183120313B601F4
:10085000323083120313B80083120313B700080069
:1008600083120313B8007F0883120313B700080034
:10087000831203130512080083120313B50335080E
:10088000031D5D2C831203133608013CB6003608A5
:100890000319542C83120313051283120313370810
:1008A00083120313B5005D2C831203130516831204
:1008B0000313380883120313B500080083120313CF
:1008C0008B01080083120313440883160313B80036
:1008D0000319AF2C3808013A0319122D3808023ACF
:1008E00003191A2D3808033A03191D2D3808043A44
:1008F0000319302D3808053A03194D2D3808063AEA
:100900000319602D3808073A0319632D3808083A8F
:1009100003196A2D3808093A0319892D38080A3A4B
:100920000319A22D38080B3A0319B92D3808323AA9
:100930000319D52D3808333A0319E02D3808343A15
:100940000319EE2D3808353A0319F52D3808FE3A0B
:100950000319C22C3808FF3A0319032D092E8A11F6
:10096000FC208A1100308A115E218A1101308A111F
:100970005E218A1100308A115E218A118A11682055
:100980008A11092E8A11FC208A11FE308A115E21FB
:100990008A1183120313450883160313B800031941
:1009A000D62CFF308A115E218A11F72C8312031393
:1009B000450883160313B8003808031DF32C83126F
:1009C0000313460883160313B80008303802031CCB
:1009D000EE2CFF308A115E218A11F72C00308A112B
:1009E0005E218A11F72C00308A115E218A110030B5
:1009F0008A115E218A1108308A115E218A118A11BA
:100A000068208A11092E8A11FC208A11FF308A1170
:100A10005E218A1102308A115E218A118A116820B2
:100A20008A11092E83120313450883160313B80095
:100A3000BF26092E0030BF26092E83120313450856
:100A400083160313B80083160313BA00831203132B
:100A5000460883160313B80083160313BB00092E40
:100A60008A11FC208A1104308A115E218A118316B2
:100A700003133A0883160313B8008A115E218A1102
:100A8000831603133B0883160313B8008A115E21F3
:100A90008A118A1168208A11092E831203134608CD
:100AA00083160313B80083160313BC0083120313C9
:100AB000470883160313B80083160313BD00092EDD
:100AC0000030BF26092E8312031345088316031333
:100AD000C300092E8A11FC208A1108308A115E2178
:100AE0008A1183160313B80183120313851E7B2D0D
:100AF00083160313B80A831603133808003003194A
:100B00000130B9008A115E218A118A1168208A1188
:100B1000092E83120313450883160313C80083129A
:100B20000313460883160313C900831203134708EF
:100B300083160313CE00831203134808831603138E
:100B4000CF00092E8A11FC208A110A308A115E21F9
:100B50008A118316031350088A115E218A118316A5
:100B6000031351088A115E218A118A1168208A11A3
:100B7000092E83120313450883160313B8001E279A
:100B800083120313450883160313B8000319092EB3
:100B9000831603134208031D092E8312031345080D
:100BA00083160313C200D826092E831203134508A7
:100BB00083160313C0004008831603139200092E06
:100BC00083120313450883160313B8000330B805D6
:100BD00004303804831203139200092E8312031386
:100BE000450883160313D200092EF8308316031329
:100BF000010583160313B8008312031345088316F7
:100C00000313B9000730B9053908380483160313F4
:100C100081000800831603130800831203130B10CE
:100C200032278316031346080319752E8316031300
:100C300041080319362E831603133A08831603134B
:100C4000B400831603133B0883160313B500FF306B
:100C5000B407031CB503340883160313BA008316C4
:100C60000313350883160313BB004F2E831603139B
:100C70003A0883160313B400831603133B08831644
:100C80000313B500B40A0319B50A34088316031315
:100C9000BA0083160313350883160313BB00003014
:100CA0008316031342040319752E831603133A089F
:100CB00083160313B400831603133B088316031330
:100CC000B500831603133C0883160313B60083167E
:100CD00003133D0883160313B70036083406031DBB
:100CE000752E370835060319A12700308316031324
:100CF00047040319922E8316031343088A112921EE
:100D00008A1183160313B40034080319922E083095
:100D10008A115C218A1101308A115C218A118A11A1
:100D20008A208A11831603130800831603134D08C3
:100D30000319B42E831603134C08031DB12E83161A
:100D400003134B08031DA92EA12783160313CD01FE
:100D5000B42E83160313CB03143083160313CC0075
:100D6000B42E83160313CC0383160313CA0AFF3071
:100D7000831203138F008E0183160313080083165A
:100D80000313B30033080319C72E9C27C82E9727D7
:100D9000CA260800D826643083160313CB0014300B
:100DA00083160313CC00013083160313CD00080013
:100DB0003C30831203139700FF3095008316031312
:100DC00092010800FF3083160313C000831603133B
:100DD000C10183160313C201FF3083160313C3003E
:100DE00083160313C40183160313C501831603136B
:100DF000BA01BB0183160313BC01BD0183160313A3
:100E0000C80183160313C90183160313CA0183168D
:100E10000313D00183160313D10103308316031388
:100E2000D20083160313D30183160313CD0183125B
:100E300003138501FF308F008E0108008316031312
:100E4000B30033080319282F8316031353142B2FD1
:100E500083160313531083160313530883120313CB
:100E60008500080083160313C60183160313C70108
:100E700083160313B00183120313861C422F8316BB
:100E80000313B00A83160313440883160313B10037
:100E90003008B10631080319542F30080319542FB4
:100EA000013083160313C60083160313300883161C
:100EB0000313C40083160313B20183120313851EA8
:100EC000642F83160313B20A831603133208B0008B
:100ED00083160313450883160313B2003006B100CE
:100EE00031080319802F3008031D802F8316031348
:100EF0004308FF3A0319802F013083160313C700FC
:100F000083160313300883160313C50008008316E5
:100F10000313D315530883120313850008008316A7
:100F20000313D3115308831203138500080083129F
:100F30000313061286160800831203138612061680
:100F4000080083120313061286120800003A0319E0
:100F5000AD2F803A0319B42F00347E088400831328
:100F60007F188317000808007F088A007E08820027
:100F70000800003A0319C12F803A0319CB2FFF0153
:100F800000347E08840083137F1883170008FF0055
:100F9000840A000808008A110000B427FD00FE0F33
:100FA000FF03FF0A8A110000B427FC007D08FF0040
:100FB0007C08080064000800000000000000000039
:100FC00000000000000000000000000008000934DC
:100FD000FF3400340034FF34003400340034003473
:100FE00000340034003464341434003400340034E9
:0C0FF0000034003403340034303400348A
:101000009430FE000830FF0080308A110000B927BC
:101010008A15000083120313E5007F08E400963070
:10102000E6000830E700831203136408E80065084F
:10103000E900FF30E407031CE503680869040319AD
:10104000902804306607E800E901E90D6708E90720
:101050006808FE006908FF0080308A110000B92787
:101060008A15000083120313EB007F08EA0066086C
:10107000FE006708FF0080308A110000B9278A153A
:10108000000083120313ED00E9007F08EC00E80084
:1010900002306607E800E901E90D6708E90768081A
:1010A000FE006908FF0080308A110000B9278A1508
:1010B000000083120313E900EF007F08E800EE0050
:1010C000831203136A08EE006B08EF00FF30EA0793
:1010D000031CEB036E086F04031989286C08FE00DB
:1010E0006D08FF0080308A110000A6278A150000D5
:1010F00083120313EE0068088400831369188317B2
:101100006E088000EC0A0319ED0AE80A0319E90ADF
:101110006028063083120313E6070318E70A132832
:101120008A1500002029080017340034E7340734FA
:10113000BF34003401340034E8340734C0340034A0
:1011400001340034E9340734C1340034013400344C
:10115000EA340734C234003401340034EB34073449
:10116000C334003401340034EC340734C434003464
:1011700001340034ED340734C53400340134003414
:10118000EE340734C634003401340034EF3407340D
:10119000C734003401340034F0340734C834003428
:1011A00001340034F1340734C934003401340034DC
:1011B000F2340734CA34003401340034F3340734D1
:1011C000CB34003401340034F4340734CC340034EC
:1011D00001340034F5340734CD34003401340034A4
:1011E000F6340734CE34003401340034F734073495
:1011F000CF34003401340034F8340734D0340034B0
:1012000001340034F9340734D1340034013400346B
:10121000FA340734D234003401340034FB34073458
:10122000D334003401340034FC340734D534003472
:1012300001340034FD340734D73400340134003431
:101240008A11E2268A154B218A1115248A158312E8
:1012500003138B1300308A1193218A158312031311
:101260008B178A11E0208A1583160313BE003E08EF
:10127000031940298A1162248A158A1152218A157C
:101280008A110A268A158A11DC278A158A11DA271B
:101290008A15312908005F3083160313810002305C
:1012A000831203139F00FF30831603138500C7309A
:1012B00086008C01831203138B018C010C30831682
:1012C00003139900043098008030831203139800B0
:1012D000831603138C168312031318168316031335
:1012E0009816831203138B150B178B17C1308600CA
:1012F000E2308316031385008312031385018316DE
:1013000003130C10831203139001831603130C14A0
:101310008312031310148316031340088316031358
:1013200092000C3083120313970095010430920051
:021330000800B3
:02400E00103F61
:00000001FF
